8=FIX.4.4|9=84|35=A|34=1|49=TEST_CLIENT_44_4|52=20150521-06:06:18.617|56=FIXIN02|98=0|108=30|141=Y|10=202|8=FIX.4.4|9=194|35=D|34=2|49=TEST_CLIENT_44_4|52=20150521-06:06:45.838|56=FIXIN02|1=0001210287|11=1432188406089|15=VND|21=1|22=2|38=100|40=2|44=10000|48=B3D53Y7|54=1|55=KLS|59=0|60=20150521-06:06:45.833|207=VN|10=050|8=FIX.4.4|9=66|35=0|34=3|49=TEST_CLIENT_44_4|52=20150521-06:07:16.341|56=FIXIN02|10=110|