8=FIX.4.4|9=84|35=A|34=1|49=TEST_CLIENT_44_4|52=20150513-06:45:53.812|56=FIXIN01|98=0|108=30|141=Y|10=201|