8=FIX.4.4|9=84|35=A|34=1|49=TEST_CLIENT_44_4|52=20150513-08:12:12.201|56=FIXIN02|98=0|108=30|141=Y|10=185|
8=FIX.4.4|9=84|35=A|34=1|49=FIXIN02|52=20150513-08:12:12.301|56=TEST_CLIENT_44_4|98=0|108=30|141=Y|10=186|
8=FIX.4.4|9=66|35=0|34=2|49=FIXIN02|52=20150513-08:12:42.654|56=TEST_CLIENT_44_4|10=114|
8=FIX.4.4|9=66|35=0|34=2|49=TEST_CLIENT_44_4|52=20150513-08:12:42.583|56=FIXIN02|10=115|
8=FIX.4.4|9=66|35=0|34=3|49=TEST_CLIENT_44_4|52=20150513-08:13:13.182|56=FIXIN02|10=110|
8=FIX.4.4|9=66|35=0|34=3|49=FIXIN02|52=20150513-08:13:13.250|56=TEST_CLIENT_44_4|10=106|
8=FIX.4.4|9=66|35=0|34=4|49=TEST_CLIENT_44_4|52=20150513-08:13:43.190|56=FIXIN02|10=113|
8=FIX.4.4|9=66|35=0|34=4|49=FIXIN02|52=20150513-08:13:43.250|56=TEST_CLIENT_44_4|10=110|
8=FIX.4.4|9=84|35=A|34=1|49=TEST_CLIENT_44_4|52=20150513-08:14:17.848|56=FIXIN02|98=0|108=30|141=Y|10=209|
8=FIX.4.4|9=84|35=A|34=1|49=FIXIN02|52=20150513-08:14:17.911|56=TEST_CLIENT_44_4|98=0|108=30|141=Y|10=200|
8=FIX.4.4|9=66|35=0|34=2|49=FIXIN02|52=20150513-08:14:48.652|56=TEST_CLIENT_44_4|10=120|
8=FIX.4.4|9=66|35=0|34=2|49=TEST_CLIENT_44_4|52=20150513-08:14:48.615|56=FIXIN02|10=119|
8=FIX.4.4|9=84|35=A|34=1|49=TEST_CLIENT_44_4|52=20150513-08:15:29.569|56=FIXIN02|98=0|108=30|141=Y|10=213|
8=FIX.4.4|9=84|35=A|34=1|49=FIXIN02|52=20150513-08:15:29.616|56=TEST_CLIENT_44_4|98=0|108=30|141=Y|10=206|
8=FIX.4.4|9=84|35=A|34=1|49=TEST_CLIENT_44_4|52=20150513-08:17:00.623|56=FIXIN02|98=0|108=30|141=Y|10=195|
8=FIX.4.4|9=84|35=A|34=1|49=FIXIN02|52=20150513-08:17:00.647|56=TEST_CLIENT_44_4|98=0|108=30|141=Y|10=201|
8=FIX.4.4|9=66|35=0|34=2|49=FIXIN02|52=20150513-08:17:30.653|56=TEST_CLIENT_44_4|10=115|
8=FIX.4.4|9=66|35=0|34=2|49=TEST_CLIENT_44_4|52=20150513-08:17:30.647|56=FIXIN02|10=118|
8=FIX.4.4|9=66|35=0|34=3|49=TEST_CLIENT_44_4|52=20150513-08:18:01.609|56=FIXIN02|10=116|
8=FIX.4.4|9=66|35=0|34=3|49=FIXIN02|52=20150513-08:18:01.617|56=TEST_CLIENT_44_4|10=115|
8=FIX.4.4|9=84|35=A|34=1|49=TEST_CLIENT_44_4|52=20150513-08:42:14.199|56=FIXIN02|98=0|108=30|141=Y|10=206|
8=FIX.4.4|9=84|35=A|34=1|49=TEST_CLIENT_44_4|52=20150513-08:42:44.181|56=FIXIN02|98=0|108=30|141=Y|10=200|
8=FIX.4.4|9=78|35=A|34=2|49=TEST_CLIENT_44_4|52=20150513-08:43:04.709|56=FIXIN02|98=0|108=30|10=162|
8=FIX.4.4|9=78|35=A|34=3|49=TEST_CLIENT_44_4|52=20150513-08:43:14.198|56=FIXIN02|98=0|108=30|10=166|
8=FIX.4.4|9=78|35=A|34=4|49=TEST_CLIENT_44_4|52=20150513-08:43:34.697|56=FIXIN02|98=0|108=30|10=173|
8=FIX.4.4|9=84|35=A|34=1|49=TEST_CLIENT_44_4|52=20150513-08:43:44.185|56=FIXIN02|98=0|108=30|141=Y|10=205|
8=FIX.4.4|9=84|35=A|34=1|49=TEST_CLIENT_44_4|52=20150513-08:44:14.190|56=FIXIN02|98=0|108=30|141=Y|10=199|
8=FIX.4.4|9=84|35=A|34=1|49=TEST_CLIENT_44_4|52=20150513-08:44:44.192|56=FIXIN02|98=0|108=30|141=Y|10=204|
8=FIX.4.4|9=84|35=A|34=1|49=TEST_CLIENT_44_4|52=20150513-08:45:14.194|56=FIXIN02|98=0|108=30|141=Y|10=204|
8=FIX.4.4|9=84|35=A|34=1|49=TEST_CLIENT_44_4|52=20150513-08:45:44.195|56=FIXIN02|98=0|108=30|141=Y|10=208|
8=FIX.4.4|9=84|35=A|34=1|49=TEST_CLIENT_44_4|52=20150513-08:46:14.199|56=FIXIN02|98=0|108=30|141=Y|10=210|
8=FIX.4.4|9=84|35=A|34=1|49=TEST_CLIENT_44_4|52=20150513-08:46:44.199|56=FIXIN02|98=0|108=30|141=Y|10=213|
8=FIX.4.4|9=84|35=A|34=1|49=TEST_CLIENT_44_4|52=20150513-08:47:14.195|56=FIXIN02|98=0|108=30|141=Y|10=207|
8=FIX.4.4|9=84|35=A|34=1|49=TEST_CLIENT_44_4|52=20150513-08:47:44.221|56=FIXIN02|98=0|108=30|141=Y|10=200|
8=FIX.4.4|9=84|35=A|34=1|49=TEST_CLIENT_44_4|52=20150513-08:48:14.205|56=FIXIN02|98=0|108=30|141=Y|10=200|
8=FIX.4.4|9=84|35=A|34=1|49=TEST_CLIENT_44_4|52=20150513-08:55:59.185|56=FIXIN02|98=0|108=30|141=Y|10=214|
8=FIX.4.4|9=84|35=A|34=1|49=TEST_CLIENT_44_4|52=20150513-08:56:29.169|56=FIXIN02|98=0|108=30|141=Y|10=214|
8=FIX.4.4|9=84|35=A|34=1|49=TEST_CLIENT_44_4|52=20150513-08:56:59.166|56=FIXIN02|98=0|108=30|141=Y|10=214|
8=FIX.4.4|9=84|35=A|34=1|49=TEST_CLIENT_44_4|52=20150513-08:57:29.167|56=FIXIN02|98=0|108=30|141=Y|10=213|
8=FIX.4.4|9=84|35=A|34=1|49=TEST_CLIENT_44_4|52=20150513-08:57:59.163|56=FIXIN02|98=0|108=30|141=Y|10=212|
8=FIX.4.4|9=84|35=A|34=1|49=TEST_CLIENT_44_4|52=20150513-08:58:29.164|56=FIXIN02|98=0|108=30|141=Y|10=211|
8=FIX.4.4|9=84|35=A|34=1|49=TEST_CLIENT_44_4|52=20150513-08:58:59.163|56=FIXIN02|98=0|108=30|141=Y|10=213|
8=FIX.4.4|9=84|35=A|34=1|49=TEST_CLIENT_44_4|52=20150513-08:59:29.161|56=FIXIN02|98=0|108=30|141=Y|10=209|
8=FIX.4.4|9=78|35=A|34=2|49=TEST_CLIENT_44_4|52=20150513-08:59:39.316|56=FIXIN02|98=0|108=30|10=171|
8=FIX.4.4|9=78|35=A|34=3|49=TEST_CLIENT_44_4|52=20150513-08:59:59.166|56=FIXIN02|98=0|108=30|10=177|
8=FIX.4.4|9=78|35=A|34=4|49=TEST_CLIENT_44_4|52=20150513-09:00:09.291|56=FIXIN02|98=0|108=30|10=159|
8=FIX.4.4|9=78|35=A|34=5|49=TEST_CLIENT_44_4|52=20150513-09:02:33.148|56=FIXIN02|98=0|108=30|10=160|
8=FIX.4.4|9=117|35=5|34=86|49=FIXIN02|52=20150513-09:02:33.022|56=TEST_CLIENT_44_4|58=MsgSeqNum too low, expecting 84 but received 5|10=170|
8=FIX.4.4|9=66|35=5|34=6|49=TEST_CLIENT_44_4|52=20150513-09:02:33.157|56=FIXIN02|10=121|
8=FIX.4.4|9=78|35=A|34=7|49=TEST_CLIENT_44_4|52=20150513-09:02:33.289|56=FIXIN02|98=0|108=30|10=168|
8=FIX.4.4|9=117|35=5|34=87|49=FIXIN02|52=20150513-09:02:33.160|56=TEST_CLIENT_44_4|58=MsgSeqNum too low, expecting 84 but received 7|10=176|
8=FIX.4.4|9=66|35=5|34=8|49=TEST_CLIENT_44_4|52=20150513-09:02:33.296|56=FIXIN02|10=127|
8=FIX.4.4|9=78|35=A|34=9|49=TEST_CLIENT_44_4|52=20150513-09:03:03.143|56=FIXIN02|98=0|108=30|10=157|
8=FIX.4.4|9=79|35=A|34=10|49=TEST_CLIENT_44_4|52=20150513-09:03:03.282|56=FIXIN02|98=0|108=30|10=202|
8=FIX.4.4|9=79|35=A|34=11|49=TEST_CLIENT_44_4|52=20150513-09:03:33.136|56=FIXIN02|98=0|108=30|10=204|
8=FIX.4.4|9=79|35=A|34=12|49=TEST_CLIENT_44_4|52=20150513-09:03:33.275|56=FIXIN02|98=0|108=30|10=209|
8=FIX.4.4|9=79|35=A|34=13|49=TEST_CLIENT_44_4|52=20150513-09:04:03.150|56=FIXIN02|98=0|108=30|10=200|
8=FIX.4.4|9=79|35=A|34=14|49=TEST_CLIENT_44_4|52=20150513-09:04:03.277|56=FIXIN02|98=0|108=30|10=211|
8=FIX.4.4|9=84|35=A|34=1|49=TEST_CLIENT_44_4|52=20150513-09:04:33.120|56=FIXIN02|98=0|108=30|141=Y|10=190|
8=FIX.4.4|9=84|35=A|34=1|49=TEST_CLIENT_44_4|52=20150513-09:05:03.121|56=FIXIN02|98=0|108=30|141=Y|10=189|
8=FIX.4.4|9=84|35=A|34=1|49=TEST_CLIENT_44_4|52=20150513-09:05:33.106|56=FIXIN02|98=0|108=30|141=Y|10=195|
8=FIX.4.4|9=84|35=A|34=1|49=TEST_CLIENT_44_4|52=20150513-09:23:11.881|56=FIXIN02|98=0|108=30|141=Y|10=201|
8=FIX.4.4|9=84|35=A|34=1|49=FIXIN02|52=20150513-09:23:11.903|56=TEST_CLIENT_44_4|98=0|108=30|141=Y|10=196|
8=FIX.4.4|9=84|35=A|34=1|49=TEST_CLIENT_44_4|52=20150513-09:25:47.479|56=FIXIN02|98=0|108=30|141=Y|10=215|
8=FIX.4.4|9=84|35=A|34=1|49=FIXIN02|52=20150513-09:25:47.514|56=TEST_CLIENT_44_4|98=0|108=30|141=Y|10=205|
8=FIX.4.4|9=66|35=0|34=2|49=FIXIN02|52=20150513-09:26:17.653|56=TEST_CLIENT_44_4|10=121|
8=FIX.4.4|9=66|35=0|34=2|49=TEST_CLIENT_44_4|52=20150513-09:26:17.640|56=FIXIN02|10=117|
8=FIX.4.4|9=78|35=A|34=3|49=TEST_CLIENT_44_4|52=20150513-09:26:47.739|56=FIXIN02|98=0|108=30|10=175|
8=FIX.4.4|9=66|35=0|34=3|49=TEST_CLIENT_44_4|52=20150513-09:26:48.443|56=FIXIN02|10=123|
8=FIX.4.4|9=66|35=0|34=3|49=FIXIN02|52=20150513-09:26:48.460|56=TEST_CLIENT_44_4|10=122|
8=FIX.4.4|9=66|35=0|34=4|49=FIXIN02|52=20150513-09:27:18.652|56=TEST_CLIENT_44_4|10=124|
8=FIX.4.4|9=66|35=0|34=4|49=TEST_CLIENT_44_4|52=20150513-09:27:18.637|56=FIXIN02|10=127|
8=FIX.4.4|9=66|35=0|34=5|49=FIXIN02|52=20150513-09:27:48.652|56=TEST_CLIENT_44_4|10=128|
8=FIX.4.4|9=66|35=0|34=5|49=TEST_CLIENT_44_4|52=20150513-09:27:49.441|56=FIXIN02|10=125|
8=FIX.4.4|9=66|35=0|34=6|49=FIXIN02|52=20150513-09:28:18.652|56=TEST_CLIENT_44_4|10=127|
8=FIX.4.4|9=66|35=0|34=6|49=TEST_CLIENT_44_4|52=20150513-09:28:20.440|56=FIXIN02|10=115|
8=FIX.4.4|9=66|35=0|34=7|49=FIXIN02|52=20150513-09:28:48.653|56=TEST_CLIENT_44_4|10=132|
8=FIX.4.4|9=66|35=0|34=7|49=TEST_CLIENT_44_4|52=20150513-09:28:51.438|56=FIXIN02|10=127|
8=FIX.4.4|9=66|35=0|34=8|49=FIXIN02|52=20150513-09:29:19.653|56=TEST_CLIENT_44_4|10=132|
8=FIX.4.4|9=66|35=0|34=8|49=TEST_CLIENT_44_4|52=20150513-09:29:22.437|56=FIXIN02|10=126|
8=FIX.4.4|9=78|35=A|34=9|49=TEST_CLIENT_44_4|52=20150513-09:29:32.223|56=FIXIN02|98=0|108=30|10=166|
8=FIX.4.4|9=66|35=0|34=9|49=FIXIN02|52=20150513-09:29:49.653|56=TEST_CLIENT_44_4|10=136|
8=FIX.4.4|9=66|35=0|34=9|49=TEST_CLIENT_44_4|52=20150513-09:29:53.436|56=FIXIN02|10=130|
8=FIX.4.4|9=67|35=0|34=10|49=FIXIN02|52=20150513-09:30:19.653|56=TEST_CLIENT_44_4|10=166|
8=FIX.4.4|9=67|35=0|34=10|49=TEST_CLIENT_44_4|52=20150513-09:30:24.435|56=FIXIN02|10=160|
8=FIX.4.4|9=67|35=0|34=11|49=FIXIN02|52=20150513-09:30:50.653|56=TEST_CLIENT_44_4|10=162|
8=FIX.4.4|9=67|35=0|34=11|49=TEST_CLIENT_44_4|52=20150513-09:30:55.434|56=FIXIN02|10=164|
8=FIX.4.4|9=67|35=0|34=12|49=FIXIN02|52=20150513-09:31:21.653|56=TEST_CLIENT_44_4|10=162|
8=FIX.4.4|9=67|35=0|34=12|49=TEST_CLIENT_44_4|52=20150513-09:31:26.433|56=FIXIN02|10=163|
8=FIX.4.4|9=67|35=0|34=13|49=FIXIN02|52=20150513-09:31:52.652|56=TEST_CLIENT_44_4|10=166|
8=FIX.4.4|9=67|35=0|34=13|49=TEST_CLIENT_44_4|52=20150513-09:31:57.431|56=FIXIN02|10=166|
8=FIX.4.4|9=79|35=A|34=14|49=TEST_CLIENT_44_4|52=20150513-09:32:19.466|56=FIXIN02|98=0|108=30|10=219|
8=FIX.4.4|9=67|35=0|34=14|49=FIXIN02|52=20150513-09:32:22.652|56=TEST_CLIENT_44_4|10=165|
8=FIX.4.4|9=67|35=0|34=14|49=TEST_CLIENT_44_4|52=20150513-09:32:28.430|56=FIXIN02|10=165|
8=FIX.4.4|9=79|35=A|34=15|49=TEST_CLIENT_44_4|52=20150513-09:32:49.455|56=FIXIN02|98=0|108=30|10=221|
8=FIX.4.4|9=67|35=0|34=15|49=FIXIN02|52=20150513-09:32:52.653|56=TEST_CLIENT_44_4|10=170|
8=FIX.4.4|9=67|35=0|34=15|49=TEST_CLIENT_44_4|52=20150513-09:32:59.429|56=FIXIN02|10=178|
8=FIX.4.4|9=79|35=A|34=16|49=TEST_CLIENT_44_4|52=20150513-09:33:19.460|56=FIXIN02|98=0|108=30|10=216|
8=FIX.4.4|9=67|35=0|34=16|49=FIXIN02|52=20150513-09:33:23.653|56=TEST_CLIENT_44_4|10=170|
8=FIX.4.4|9=67|35=0|34=16|49=TEST_CLIENT_44_4|52=20150513-09:33:30.428|56=FIXIN02|10=168|
8=FIX.4.4|9=84|35=A|34=1|49=TEST_CLIENT_44_4|52=20150513-09:34:01.409|56=FIXIN02|98=0|108=30|141=Y|10=198|
8=FIX.4.4|9=84|35=A|34=1|49=FIXIN02|52=20150513-09:34:01.455|56=TEST_CLIENT_44_4|98=0|108=30|141=Y|10=199|
8=FIX.4.4|9=84|35=A|34=1|49=TEST_CLIENT_44_4|52=20150514-02:37:37.004|56=FIXIN02|98=0|108=30|141=Y|10=195|
8=FIX.4.4|9=84|35=A|34=1|49=FIXIN02|52=20150514-02:37:36.839|56=TEST_CLIENT_44_4|98=0|108=30|141=Y|10=210|
8=FIX.4.4|9=66|35=0|34=2|49=TEST_CLIENT_44_4|52=20150514-02:38:07.654|56=FIXIN02|10=118|
8=FIX.4.4|9=66|35=0|34=2|49=FIXIN02|52=20150514-02:38:07.421|56=TEST_CLIENT_44_4|10=110|
8=FIX.4.4|9=84|35=A|34=1|49=TEST_CLIENT_44_4|52=20150514-02:38:33.592|56=FIXIN02|98=0|108=30|141=Y|10=204|
8=FIX.4.4|9=84|35=A|34=1|49=FIXIN02|52=20150514-02:38:33.375|56=TEST_CLIENT_44_4|98=0|108=30|141=Y|10=203|
8=FIX.4.4|9=66|35=0|34=2|49=FIXIN02|52=20150514-02:39:03.652|56=TEST_CLIENT_44_4|10=113|
8=FIX.4.4|9=66|35=0|34=2|49=TEST_CLIENT_44_4|52=20150514-02:39:03.892|56=FIXIN02|10=119|
8=FIX.4.4|9=84|35=A|34=1|49=TEST_CLIENT_44_4|52=20150514-02:39:42.535|56=FIXIN02|98=0|108=30|141=Y|10=202|
8=FIX.4.4|9=84|35=A|34=1|49=FIXIN02|52=20150514-02:39:42.310|56=TEST_CLIENT_44_4|98=0|108=30|141=Y|10=193|
8=FIX.4.4|9=66|35=0|34=2|49=FIXIN02|52=20150514-02:40:12.652|56=TEST_CLIENT_44_4|10=105|
8=FIX.4.4|9=66|35=0|34=2|49=TEST_CLIENT_44_4|52=20150514-02:40:12.897|56=FIXIN02|10=116|
8=FIX.4.4|9=193|35=D|34=3|49=TEST_CLIENT_44_4|52=20150514-02:40:24.659|56=FIXIN02|1=0001210287|11=1431571225426|15=VND|21=1|22=2|38=200|40=2|44=9000|48=B3D53Y7|54=2|55=CT6|59=0|60=20150514-02:40:24.648|207=VN|10=219|
8=FIX.4.4|9=433|35=8|34=3|49=FIXIN02|52=20150514-02:40:24.575|56=TEST_CLIENT_44_4|1=0001210287|6=0|11=1431571225426|14=0|17=051315-FIXIN02-57815-0-TEST_CLIENT_44_4-1431571225426|31=0|32=0|37=051315-FIXIN02-57815-0-TEST_CLIENT_44_4-1431571225426|38=200|39=8|40=2|44=9000|54=2|55=CT6|58=SEC 15 : Unknown account --- Additional Info: Unknown trans 0001210287-0001210287-CT6-1|59=0|60=20150514-02:40:24.574|103=15|150=8|151=0|336=2|376=0001210287,200,1|10=088|
8=FIX.4.4|9=66|35=0|34=4|49=FIXIN02|52=20150514-02:40:54.652|56=TEST_CLIENT_44_4|10=113|
8=FIX.4.4|9=66|35=0|34=4|49=TEST_CLIENT_44_4|52=20150514-02:40:54.898|56=FIXIN02|10=125|
8=FIX.4.4|9=196|35=D|34=5|49=TEST_CLIENT_44_4|52=20150514-02:40:57.830|56=FIXIN02|1=0001210287|11=1431571258681|15=VND|21=1|22=2|38=10000|40=2|44=19000|48=B3D53Y7|54=2|55=HAG|59=0|60=20150514-02:40:57.825|207=VN|10=124|
8=FIX.4.4|9=459|35=8|34=5|49=FIXIN02|52=20150514-02:40:57.590|56=TEST_CLIENT_44_4|1=0001210287|6=0|11=1431571258681|14=0|17=051315-FIXIN02-57816-0-TEST_CLIENT_44_4-1431571258681|31=0|32=0|37=051315-FIXIN02-57816-0-TEST_CLIENT_44_4-1431571258681|38=10000|39=8|40=2|44=19000|54=2|55=HAG|58=SEC 0 : Broker Exchange Option --- Additional Info: Price 19000 is lower than floor price 21000 of symbol HAG|59=0|60=20150514-02:40:57.590|103=0|150=8|151=0|336=1|376=0001210287,10000,0|10=199|
8=FIX.4.4|9=84|35=A|34=1|49=TEST_CLIENT_44_4|52=20150514-02:42:23.017|56=FIXIN02|98=0|108=30|141=Y|10=190|
8=FIX.4.4|9=84|35=A|34=1|49=FIXIN02|52=20150514-02:42:22.796|56=TEST_CLIENT_44_4|98=0|108=30|141=Y|10=203|
8=FIX.4.4|9=194|35=D|34=2|49=TEST_CLIENT_44_4|52=20150514-02:42:23.236|56=FIXIN02|1=0001210287|11=1431571343841|15=VND|21=1|22=2|38=100|40=2|44=10800|48=B3D53Y7|54=1|55=IJC|59=0|60=20150514-02:42:23.234|207=VN|10=004|
8=FIX.4.4|9=455|35=8|34=2|49=FIXIN02|52=20150514-02:42:22.992|56=TEST_CLIENT_44_4|1=0001210287|6=0|11=1431571343841|14=0|17=051315-FIXIN02-57817-0-TEST_CLIENT_44_4-1431571343841|31=0|32=0|37=051315-FIXIN02-57817-0-TEST_CLIENT_44_4-1431571343841|38=100|39=8|40=2|44=10800|54=1|55=IJC|58=SEC 0 : Broker Exchange Option --- Additional Info: Price 10800 is lower than floor price 12500 of symbol IJC|59=0|60=20150514-02:42:22.992|103=0|150=8|151=0|336=1|376=0001210287,100,0|10=251|
8=FIX.4.4|9=194|35=D|34=3|49=TEST_CLIENT_44_4|52=20150514-02:42:23.451|56=FIXIN02|1=0001210287|11=1431571344011|15=VND|21=1|22=2|38=100|40=2|44=13100|48=B3D53Y7|54=2|55=POT|59=0|60=20150514-02:42:23.450|207=VN|10=020|
8=FIX.4.4|9=434|35=8|34=3|49=FIXIN02|52=20150514-02:42:23.205|56=TEST_CLIENT_44_4|1=0001210287|6=0|11=1431571344011|14=0|17=051315-FIXIN02-57818-0-TEST_CLIENT_44_4-1431571344011|31=0|32=0|37=051315-FIXIN02-57818-0-TEST_CLIENT_44_4-1431571344011|38=100|39=8|40=2|44=13100|54=2|55=POT|58=SEC 15 : Unknown account --- Additional Info: Unknown trans 0001210287-0001210287-POT-1|59=0|60=20150514-02:42:23.205|103=15|150=8|151=0|336=2|376=0001210287,100,1|10=172|
8=FIX.4.4|9=195|35=D|34=4|49=TEST_CLIENT_44_4|52=20150514-02:42:23.648|56=FIXIN02|1=0001210287|11=1431571343706|15=VND|21=1|22=2|38=2000|40=2|44=15000|48=B3D53Y7|54=1|55=KBC|59=0|60=20150514-02:42:23.644|207=VN|10=059|
8=FIX.4.4|9=356|35=8|34=4|49=FIXIN02|52=20150514-02:42:23.402|56=TEST_CLIENT_44_4|1=0001210287|6=0|11=1431571343706|14=0|17=051315-FIXIN02-57819-0-TEST_CLIENT_44_4-1431571343706-PN|19=50000002|31=0|32=0|37=051315-FIXIN02-57819-0-TEST_CLIENT_44_4-1431571343706|38=2000|39=A|40=2|44=15000|54=1|55=KBC|59=0|60=20150514-02:42:23.402|150=A|151=2000|336=1|376=0001210287,2000,8|10=067|
8=FIX.4.4|9=194|35=D|34=5|49=TEST_CLIENT_44_4|52=20150514-02:42:24.102|56=FIXIN02|1=0001210287|11=1431571344349|15=VND|21=1|22=2|38=5000|40=2|44=5300|48=B3D53Y7|54=1|55=HQC|59=0|60=20150514-02:42:24.101|207=VN|10=007|
8=FIX.4.4|9=454|35=8|34=5|49=FIXIN02|52=20150514-02:42:23.855|56=TEST_CLIENT_44_4|1=0001210287|6=0|11=1431571344349|14=0|17=051315-FIXIN02-57820-0-TEST_CLIENT_44_4-1431571344349|31=0|32=0|37=051315-FIXIN02-57820-0-TEST_CLIENT_44_4-1431571344349|38=5000|39=8|40=2|44=5300|54=1|55=HQC|58=SEC 0 : Broker Exchange Option --- Additional Info: Price 5300 is lower than floor price 6700 of symbol HQC|59=0|60=20150514-02:42:23.855|103=0|150=8|151=0|336=1|376=0001210287,5000,0|10=226|
8=FIX.4.4|9=194|35=D|34=6|49=TEST_CLIENT_44_4|52=20150514-02:42:24.308|56=FIXIN02|1=0001210287|11=1431571345003|15=VND|21=1|22=2|38=300|40=2|44=10700|48=B3D53Y7|54=1|55=IJC|59=0|60=20150514-02:42:24.307|207=VN|10=004|
8=FIX.4.4|9=455|35=8|34=6|49=FIXIN02|52=20150514-02:42:24.061|56=TEST_CLIENT_44_4|1=0001210287|6=0|11=1431571345003|14=0|17=051315-FIXIN02-57821-0-TEST_CLIENT_44_4-1431571345003|31=0|32=0|37=051315-FIXIN02-57821-0-TEST_CLIENT_44_4-1431571345003|38=300|39=8|40=2|44=10700|54=1|55=IJC|58=SEC 0 : Broker Exchange Option --- Additional Info: Price 10700 is lower than floor price 12500 of symbol IJC|59=0|60=20150514-02:42:24.061|103=0|150=8|151=0|336=1|376=0001210287,300,0|10=201|
8=FIX.4.4|9=195|35=D|34=7|49=TEST_CLIENT_44_4|52=20150514-02:42:24.755|56=FIXIN02|1=0001210287|11=1431571344977|15=VND|21=1|22=2|38=1000|40=2|44=23400|48=B3D53Y7|54=1|55=HHS|59=0|60=20150514-02:42:24.754|207=VN|10=097|
8=FIX.4.4|9=460|35=8|34=7|49=FIXIN02|52=20150514-02:42:24.509|56=TEST_CLIENT_44_4|1=0001210287|6=0|11=1431571344977|14=0|17=051315-FIXIN02-57822-0-TEST_CLIENT_44_4-1431571344977|31=0|32=0|37=051315-FIXIN02-57822-0-TEST_CLIENT_44_4-1431571344977|38=1000|39=8|40=2|44=23400|54=1|55=HHS|58=SEC 0 : Broker Exchange Option --- Additional Info: Price 23400 is higher than ceiling price 19100 of symbol HHS|59=0|60=20150514-02:42:24.509|103=0|150=8|151=0|336=1|376=0001210287,1000,0|10=145|
8=FIX.4.4|9=193|35=D|34=8|49=TEST_CLIENT_44_4|52=20150514-02:42:24.980|56=FIXIN02|1=0001210287|11=1431571345876|15=VND|21=1|22=2|38=800|40=2|44=8500|48=B3D53Y7|54=2|55=KLS|59=0|60=20150514-02:42:24.980|207=VN|10=019|
8=FIX.4.4|9=453|35=8|34=8|49=FIXIN02|52=20150514-02:42:24.733|56=TEST_CLIENT_44_4|1=0001210287|6=0|11=1431571345876|14=0|17=051315-FIXIN02-57823-0-TEST_CLIENT_44_4-1431571345876|31=0|32=0|37=051315-FIXIN02-57823-0-TEST_CLIENT_44_4-1431571345876|38=800|39=8|40=2|44=8500|54=2|55=KLS|58=SEC 0 : Broker Exchange Option --- Additional Info: Price 8500 is lower than floor price 10000 of symbol KLS|59=0|60=20150514-02:42:24.733|103=0|150=8|151=0|336=2|376=0001210287,800,0|10=230|
8=FIX.4.4|9=195|35=D|34=9|49=TEST_CLIENT_44_4|52=20150514-02:42:25.458|56=FIXIN02|1=0001210287|11=1431571346084|15=VND|21=1|22=2|38=3000|40=2|44=14300|48=B3D53Y7|54=2|55=API|59=0|60=20150514-02:42:25.458|207=VN|10=086|
8=FIX.4.4|9=436|35=8|34=9|49=FIXIN02|52=20150514-02:42:25.212|56=TEST_CLIENT_44_4|1=0001210287|6=0|11=1431571346084|14=0|17=051315-FIXIN02-57824-0-TEST_CLIENT_44_4-1431571346084|31=0|32=0|37=051315-FIXIN02-57824-0-TEST_CLIENT_44_4-1431571346084|38=3000|39=8|40=2|44=14300|54=2|55=API|58=SEC 15 : Unknown account --- Additional Info: Unknown trans 0001210287-0001210287-API-1|59=0|60=20150514-02:42:25.212|103=15|150=8|151=0|336=2|376=0001210287,3000,1|10=007|
8=FIX.4.4|9=84|35=A|34=1|49=TEST_CLIENT_44_4|52=20150514-03:57:07.392|56=FIXIN02|98=0|108=30|141=Y|10=205|
8=FIX.4.4|9=84|35=A|34=1|49=FIXIN02|52=20150514-03:57:07.335|56=TEST_CLIENT_44_4|98=0|108=30|141=Y|10=202|
8=FIX.4.4|9=84|35=A|34=1|49=TEST_CLIENT_44_4|52=20150514-03:58:12.538|56=FIXIN02|98=0|108=30|141=Y|10=204|
8=FIX.4.4|9=84|35=A|34=1|49=FIXIN02|52=20150514-03:58:12.507|56=TEST_CLIENT_44_4|98=0|108=30|141=Y|10=200|
8=FIX.4.4|9=84|35=A|34=1|49=TEST_CLIENT_44_4|52=20150514-03:58:56.876|56=FIXIN02|98=0|108=30|141=Y|10=217|
8=FIX.4.4|9=84|35=A|34=1|49=FIXIN02|52=20150514-03:58:56.864|56=TEST_CLIENT_44_4|98=0|108=30|141=Y|10=214|
8=FIX.4.4|9=84|35=A|34=1|49=TEST_CLIENT_44_4|52=20150514-03:59:36.681|56=FIXIN02|98=0|108=30|141=Y|10=210|
8=FIX.4.4|9=84|35=A|34=1|49=FIXIN02|52=20150514-03:59:36.676|56=TEST_CLIENT_44_4|98=0|108=30|141=Y|10=214|
8=FIX.4.4|9=66|35=0|34=2|49=TEST_CLIENT_44_4|52=20150514-04:00:07.647|56=FIXIN02|10=111|
8=FIX.4.4|9=66|35=0|34=2|49=FIXIN02|52=20150514-04:00:07.627|56=TEST_CLIENT_44_4|10=109|
8=FIX.4.4|9=84|35=A|34=1|49=TEST_CLIENT_44_4|52=20150514-04:00:33.187|56=FIXIN02|98=0|108=30|141=Y|10=195|
8=FIX.4.4|9=84|35=A|34=1|49=FIXIN02|52=20150514-04:00:33.175|56=TEST_CLIENT_44_4|98=0|108=30|141=Y|10=192|
8=FIX.4.4|9=66|35=0|34=2|49=FIXIN02|52=20150514-04:01:03.653|56=TEST_CLIENT_44_4|10=105|
8=FIX.4.4|9=66|35=0|34=2|49=TEST_CLIENT_44_4|52=20150514-04:01:03.695|56=FIXIN02|10=111|
8=FIX.4.4|9=66|35=0|34=3|49=TEST_CLIENT_44_4|52=20150514-04:01:34.146|56=FIXIN02|10=107|
8=FIX.4.4|9=66|35=0|34=3|49=FIXIN02|52=20150514-04:01:34.113|56=TEST_CLIENT_44_4|10=101|
8=FIX.4.4|9=84|35=A|34=1|49=TEST_CLIENT_44_4|52=20150514-04:02:37.263|56=FIXIN02|98=0|108=30|141=Y|10=196|
8=FIX.4.4|9=84|35=A|34=1|49=FIXIN02|52=20150514-04:02:37.252|56=TEST_CLIENT_44_4|98=0|108=30|141=Y|10=194|
8=FIX.4.4|9=84|35=A|34=1|49=TEST_CLIENT_44_4|52=20150514-04:03:02.579|56=FIXIN02|98=0|108=30|141=Y|10=199|
8=FIX.4.4|9=84|35=A|34=1|49=FIXIN02|52=20150514-04:03:02.570|56=TEST_CLIENT_44_4|98=0|108=30|141=Y|10=190|
8=FIX.4.4|9=66|35=0|34=2|49=FIXIN02|52=20150514-04:03:32.652|56=TEST_CLIENT_44_4|10=108|
8=FIX.4.4|9=66|35=0|34=2|49=TEST_CLIENT_44_4|52=20150514-04:03:32.673|56=FIXIN02|10=111|
8=FIX.4.4|9=66|35=0|34=3|49=FIXIN02|52=20150514-04:04:02.652|56=TEST_CLIENT_44_4|10=107|
8=FIX.4.4|9=66|35=0|34=3|49=TEST_CLIENT_44_4|52=20150514-04:04:03.539|56=FIXIN02|10=112|
8=FIX.4.4|9=66|35=0|34=4|49=FIXIN02|52=20150514-04:04:32.653|56=TEST_CLIENT_44_4|10=112|
8=FIX.4.4|9=66|35=0|34=4|49=TEST_CLIENT_44_4|52=20150514-04:04:34.538|56=FIXIN02|10=116|
8=FIX.4.4|9=66|35=0|34=5|49=FIXIN02|52=20150514-04:05:03.653|56=TEST_CLIENT_44_4|10=112|
8=FIX.4.4|9=66|35=0|34=5|49=TEST_CLIENT_44_4|52=20150514-04:05:05.537|56=FIXIN02|10=115|
8=FIX.4.4|9=84|35=A|34=1|49=TEST_CLIENT_44_4|52=20150514-04:05:37.825|56=FIXIN02|98=0|108=30|141=Y|10=203|
8=FIX.4.4|9=84|35=A|34=1|49=FIXIN02|52=20150514-04:05:37.827|56=TEST_CLIENT_44_4|98=0|108=30|141=Y|10=205|
8=FIX.4.4|9=66|35=0|34=2|49=FIXIN02|52=20150514-04:06:08.653|56=TEST_CLIENT_44_4|10=115|
8=FIX.4.4|9=66|35=0|34=2|49=TEST_CLIENT_44_4|52=20150514-04:06:08.665|56=FIXIN02|10=118|
8=FIX.4.4|9=84|35=A|34=1|49=TEST_CLIENT_44_4|52=20150514-04:06:48.586|56=FIXIN02|98=0|108=30|141=Y|10=210|
8=FIX.4.4|9=84|35=A|34=1|49=FIXIN02|52=20150514-04:06:48.599|56=TEST_CLIENT_44_4|98=0|108=30|141=Y|10=214|
8=FIX.4.4|9=66|35=0|34=2|49=FIXIN02|52=20150514-04:07:18.653|56=TEST_CLIENT_44_4|10=117|
8=FIX.4.4|9=66|35=0|34=2|49=TEST_CLIENT_44_4|52=20150514-04:07:18.663|56=FIXIN02|10=118|
8=FIX.4.4|9=66|35=0|34=3|49=FIXIN02|52=20150514-04:07:48.653|56=TEST_CLIENT_44_4|10=121|
8=FIX.4.4|9=66|35=0|34=3|49=TEST_CLIENT_44_4|52=20150514-04:07:49.551|56=FIXIN02|10=119|
8=FIX.4.4|9=84|35=A|34=1|49=TEST_CLIENT_44_4|52=20150514-04:09:13.869|56=FIXIN02|98=0|108=30|141=Y|10=209|
8=FIX.4.4|9=84|35=A|34=1|49=FIXIN02|52=20150514-04:09:13.880|56=TEST_CLIENT_44_4|98=0|108=30|141=Y|10=202|
8=FIX.4.4|9=84|35=A|34=1|49=TEST_CLIENT_44_4|52=20150514-04:11:02.044|56=FIXIN02|98=0|108=30|141=Y|10=185|
8=FIX.4.4|9=84|35=A|34=1|49=FIXIN02|52=20150514-04:11:02.059|56=TEST_CLIENT_44_4|98=0|108=30|141=Y|10=191|
8=FIX.4.4|9=84|35=A|34=1|49=TEST_CLIENT_44_4|52=20150514-04:11:15.520|56=FIXIN02|98=0|108=30|141=Y|10=188|
8=FIX.4.4|9=84|35=A|34=1|49=FIXIN02|52=20150514-04:11:15.541|56=TEST_CLIENT_44_4|98=0|108=30|141=Y|10=191|
8=FIX.4.4|9=194|35=D|34=2|49=TEST_CLIENT_44_4|52=20150514-04:11:19.309|56=FIXIN02|1=0001210287|11=1431576679863|15=VND|21=1|22=2|38=200|40=2|44=23700|48=B3D53Y7|54=1|55=HHS|59=0|60=20150514-04:11:19.307|207=VN|10=050|
8=FIX.4.4|9=458|35=8|34=2|49=FIXIN02|52=20150514-04:11:19.315|56=TEST_CLIENT_44_4|1=0001210287|6=0|11=1431576679863|14=0|17=051315-FIXIN02-64426-0-TEST_CLIENT_44_4-1431576679863|31=0|32=0|37=051315-FIXIN02-64426-0-TEST_CLIENT_44_4-1431576679863|38=200|39=8|40=2|44=23700|54=1|55=HHS|58=SEC 0 : Broker Exchange Option --- Additional Info: Price 23700 is higher than ceiling price 19100 of symbol HHS|59=0|60=20150514-04:11:19.315|103=0|150=8|151=0|336=1|376=0001210287,200,0|10=079|
8=FIX.4.4|9=194|35=D|34=3|49=TEST_CLIENT_44_4|52=20150514-04:11:24.571|56=FIXIN02|1=0001210287|11=1431576684639|15=VND|21=1|22=2|38=5000|40=2|44=3000|48=B3D53Y7|54=2|55=OGC|59=0|60=20150514-04:11:24.569|207=VN|10=036|
8=FIX.4.4|9=454|35=8|34=3|49=FIXIN02|52=20150514-04:11:24.575|56=TEST_CLIENT_44_4|1=0001210287|6=0|11=1431576684639|14=0|17=051315-FIXIN02-64427-0-TEST_CLIENT_44_4-1431576684639|31=0|32=0|37=051315-FIXIN02-64427-0-TEST_CLIENT_44_4-1431576684639|38=5000|39=8|40=2|44=3000|54=2|55=OGC|58=SEC 0 : Broker Exchange Option --- Additional Info: Price 3000 is lower than floor price 5800 of symbol OGC|59=0|60=20150514-04:11:24.575|103=0|150=8|151=0|336=1|376=0001210287,5000,0|10=249|
8=FIX.4.4|9=84|35=A|34=1|49=TEST_CLIENT_44_4|52=20150514-04:11:45.559|56=FIXIN02|98=0|108=30|141=Y|10=203|
8=FIX.4.4|9=84|35=A|34=1|49=FIXIN02|52=20150514-04:11:45.577|56=TEST_CLIENT_44_4|98=0|108=30|141=Y|10=203|
8=FIX.4.4|9=66|35=0|34=2|49=FIXIN02|52=20150514-04:12:15.652|56=TEST_CLIENT_44_4|10=109|
8=FIX.4.4|9=66|35=0|34=2|49=TEST_CLIENT_44_4|52=20150514-04:12:15.651|56=FIXIN02|10=108|
8=FIX.4.4|9=193|35=D|34=3|49=TEST_CLIENT_44_4|52=20150514-04:12:16.672|56=FIXIN02|1=0001210287|11=1431576736752|15=VND|21=1|22=2|38=100|40=2|44=9500|48=B3D53Y7|54=1|55=VND|59=0|60=20150514-04:12:16.667|207=VN|10=007|
8=FIX.4.4|9=397|35=8|34=3|49=FIXIN02|52=20150514-04:12:16.680|56=TEST_CLIENT_44_4|1=0001210287|6=0|11=1431576736752|14=0|17=051315-FIXIN02-64428-0-TEST_CLIENT_44_4-1431576736752-PN|19=051315-FIXIN02-64428-0-TEST_CLIENT_44_4-1431576736752|31=0|32=0|37=051315-FIXIN02-64428-0-TEST_CLIENT_44_4-1431576736752|38=100|39=A|40=2|44=9500|54=1|55=VND|59=0|60=20150514-04:12:16.679|150=A|151=100|336=2|376=0001210287,100,8|10=217|
8=FIX.4.4|9=404|35=8|34=4|49=FIXIN02|52=20150514-04:12:16.692|56=TEST_CLIENT_44_4|1=0001210287|6=0|11=1431576736752|14=0|17=051415111216-HNX_GATEWAY_MATCHING-0-ORS_1_ACTIVE_UAT-0|19=VND0211GW051315-FIXIN02-64428-0-TEST_CLIENT_44_4-1431576736752|31=0|32=0|37=051315-FIXIN02-64428-0-TEST_CLIENT_44_4-1431576736752|38=100|39=0|40=2|44=9500|54=1|55=VND|59=0|60=20150514-04:12:16.692|150=0|151=100|336=2|376=0001210287,100,8|10=002|
8=FIX.4.4|9=66|35=0|34=4|49=TEST_CLIENT_44_4|52=20150514-04:12:47.525|56=FIXIN02|10=115|
8=FIX.4.4|9=66|35=0|34=5|49=FIXIN02|52=20150514-04:12:47.532|56=TEST_CLIENT_44_4|10=114|
8=FIX.4.4|9=66|35=0|34=6|49=FIXIN02|52=20150514-04:13:17.653|56=TEST_CLIENT_44_4|10=117|
8=FIX.4.4|9=66|35=0|34=5|49=TEST_CLIENT_44_4|52=20150514-04:13:17.647|56=FIXIN02|10=119|
8=FIX.4.4|9=193|35=D|34=6|49=TEST_CLIENT_44_4|52=20150514-04:13:24.330|56=FIXIN02|1=0001210287|11=1431576804839|15=VND|21=1|22=2|38=10|40=2|44=18600|48=B3D53Y7|54=1|55=SSI|59=0|60=20150514-04:13:24.328|207=VN|10=005|
8=FIX.4.4|9=453|35=8|34=7|49=FIXIN02|52=20150514-04:13:24.340|56=TEST_CLIENT_44_4|1=0001210287|6=0|11=1431576804839|14=0|17=051315-FIXIN02-64429-0-TEST_CLIENT_44_4-1431576804839|31=0|32=0|37=051315-FIXIN02-64429-0-TEST_CLIENT_44_4-1431576804839|38=10|39=8|40=2|44=18600|54=1|55=SSI|58=SEC 0 : Broker Exchange Option --- Additional Info: Price 18600 is lower than floor price 25100 of symbol SSI|59=0|60=20150514-04:13:24.340|103=0|150=8|151=0|336=1|376=0001210287,10,0|10=234|
8=FIX.4.4|9=66|35=0|34=7|49=TEST_CLIENT_44_4|52=20150514-04:13:54.522|56=FIXIN02|10=114|
8=FIX.4.4|9=66|35=0|34=8|49=FIXIN02|52=20150514-04:13:54.532|56=TEST_CLIENT_44_4|10=116|
8=FIX.4.4|9=193|35=D|34=8|49=TEST_CLIENT_44_4|52=20150514-04:14:05.686|56=FIXIN02|1=0001210287|11=1431576846159|15=VND|21=1|22=2|38=10|40=2|44=18600|48=B3D53Y7|54=1|55=SSI|59=0|60=20150514-04:14:05.685|207=VN|10=028|
8=FIX.4.4|9=453|35=8|34=9|49=FIXIN02|52=20150514-04:14:05.698|56=TEST_CLIENT_44_4|1=0001210287|6=0|11=1431576846159|14=0|17=051315-FIXIN02-64430-0-TEST_CLIENT_44_4-1431576846159|31=0|32=0|37=051315-FIXIN02-64430-0-TEST_CLIENT_44_4-1431576846159|38=10|39=8|40=2|44=18600|54=1|55=SSI|58=SEC 0 : Broker Exchange Option --- Additional Info: Price 18600 is lower than floor price 25100 of symbol SSI|59=0|60=20150514-04:14:05.698|103=0|150=8|151=0|336=1|376=0001210287,10,0|10=255|
8=FIX.4.4|9=66|35=0|34=9|49=TEST_CLIENT_44_4|52=20150514-04:14:36.521|56=FIXIN02|10=116|
8=FIX.4.4|9=67|35=0|34=10|49=FIXIN02|52=20150514-04:14:36.532|56=TEST_CLIENT_44_4|10=159|
8=FIX.4.4|9=67|35=0|34=11|49=FIXIN02|52=20150514-04:15:06.652|56=TEST_CLIENT_44_4|10=161|
8=FIX.4.4|9=67|35=0|34=10|49=TEST_CLIENT_44_4|52=20150514-04:15:06.643|56=FIXIN02|10=160|
8=FIX.4.4|9=194|35=D|34=11|49=TEST_CLIENT_44_4|52=20150514-04:15:23.796|56=FIXIN02|1=0001210287|11=1431576924093|15=VND|21=1|22=2|38=100|40=2|44=9500|48=B3D53Y7|54=1|55=VND|59=0|60=20150514-04:15:23.795|207=VN|10=063|
8=FIX.4.4|9=398|35=8|34=12|49=FIXIN02|52=20150514-04:15:23.811|56=TEST_CLIENT_44_4|1=0001210287|6=0|11=1431576924093|14=0|17=051315-FIXIN02-64431-0-TEST_CLIENT_44_4-1431576924093-PN|19=051315-FIXIN02-64431-0-TEST_CLIENT_44_4-1431576924093|31=0|32=0|37=051315-FIXIN02-64431-0-TEST_CLIENT_44_4-1431576924093|38=100|39=A|40=2|44=9500|54=1|55=VND|59=0|60=20150514-04:15:23.811|150=A|151=100|336=2|376=0001210287,100,8|10=222|
8=FIX.4.4|9=405|35=8|34=13|49=FIXIN02|52=20150514-04:15:23.854|56=TEST_CLIENT_44_4|1=0001210287|6=0|11=1431576924093|14=0|17=051415111523-HNX_GATEWAY_MATCHING-1-ORS_1_ACTIVE_UAT-0|19=VND0211GW051315-FIXIN02-64431-0-TEST_CLIENT_44_4-1431576924093|31=0|32=0|37=051315-FIXIN02-64431-0-TEST_CLIENT_44_4-1431576924093|38=100|39=0|40=2|44=9500|54=1|55=VND|59=0|60=20150514-04:15:23.854|150=0|151=100|336=2|376=0001210287,100,8|10=034|
8=FIX.4.4|9=67|35=0|34=12|49=TEST_CLIENT_44_4|52=20150514-04:15:54.518|56=FIXIN02|10=166|
8=FIX.4.4|9=67|35=0|34=14|49=FIXIN02|52=20150514-04:15:54.532|56=TEST_CLIENT_44_4|10=164|
8=FIX.4.4|9=67|35=0|34=15|49=FIXIN02|52=20150514-04:16:24.653|56=TEST_CLIENT_44_4|10=167|
8=FIX.4.4|9=67|35=0|34=13|49=TEST_CLIENT_44_4|52=20150514-04:16:24.640|56=FIXIN02|10=161|
8=FIX.4.4|9=67|35=0|34=14|49=TEST_CLIENT_44_4|52=20150514-04:16:55.516|56=FIXIN02|10=168|
8=FIX.4.4|9=67|35=0|34=16|49=FIXIN02|52=20150514-04:16:55.533|56=TEST_CLIENT_44_4|10=169|
8=FIX.4.4|9=67|35=0|34=17|49=FIXIN02|52=20150514-04:17:25.652|56=TEST_CLIENT_44_4|10=170|
8=FIX.4.4|9=67|35=0|34=15|49=TEST_CLIENT_44_4|52=20150514-04:17:25.637|56=FIXIN02|10=171|
8=FIX.4.4|9=67|35=0|34=18|49=FIXIN02|52=20150514-04:17:55.652|56=TEST_CLIENT_44_4|10=174|
8=FIX.4.4|9=67|35=0|34=16|49=TEST_CLIENT_44_4|52=20150514-04:17:56.513|56=FIXIN02|10=169|
8=FIX.4.4|9=67|35=0|34=19|49=FIXIN02|52=20150514-04:18:25.652|56=TEST_CLIENT_44_4|10=173|
8=FIX.4.4|9=67|35=0|34=17|49=TEST_CLIENT_44_4|52=20150514-04:18:27.512|56=FIXIN02|10=168|
8=FIX.4.4|9=194|35=D|34=18|49=TEST_CLIENT_44_4|52=20150514-04:18:47.885|56=FIXIN02|1=0001210287|11=1431577128039|15=VND|21=1|22=2|38=100|40=2|44=7600|48=B3D53Y7|54=1|55=KLS|59=0|60=20150514-04:18:47.884|207=VN|10=084|
8=FIX.4.4|9=454|35=8|34=20|49=FIXIN02|52=20150514-04:18:48.211|56=TEST_CLIENT_44_4|1=0001210287|6=0|11=1431577128039|14=0|17=051315-FIXIN02-64432-0-TEST_CLIENT_44_4-1431577128039|31=0|32=0|37=051315-FIXIN02-64432-0-TEST_CLIENT_44_4-1431577128039|38=100|39=8|40=2|44=7600|54=1|55=KLS|58=SEC 0 : Broker Exchange Option --- Additional Info: Price 7600 is lower than floor price 10000 of symbol KLS|59=0|60=20150514-04:18:48.211|103=0|150=8|151=0|336=2|376=0001210287,100,0|10=238|
8=FIX.4.4|9=67|35=0|34=19|49=TEST_CLIENT_44_4|52=20150514-04:19:18.510|56=FIXIN02|10=169|
8=FIX.4.4|9=67|35=0|34=21|49=FIXIN02|52=20150514-04:19:18.532|56=TEST_CLIENT_44_4|10=166|
8=FIX.4.4|9=67|35=0|34=22|49=FIXIN02|52=20150514-04:19:48.653|56=TEST_CLIENT_44_4|10=174|
8=FIX.4.4|9=67|35=0|34=20|49=TEST_CLIENT_44_4|52=20150514-04:19:48.633|56=FIXIN02|10=170|
8=FIX.4.4|9=84|35=A|34=1|49=TEST_CLIENT_44_4|52=20150519-04:57:57.002|56=FIXIN02|98=0|108=30|141=Y|10=204|
8=FIX.4.4|9=84|35=A|34=1|49=FIXIN02|52=20150519-04:57:57.395|56=TEST_CLIENT_44_4|98=0|108=30|141=Y|10=219|
8=FIX.4.4|9=84|35=A|34=1|49=TEST_CLIENT_44_4|52=20150519-07:15:37.290|56=FIXIN02|98=0|108=30|141=Y|10=208|
8=FIX.4.4|9=84|35=A|34=1|49=FIXIN02|52=20150519-07:15:37.504|56=TEST_CLIENT_44_4|98=0|108=30|141=Y|10=206|
8=FIX.4.4|9=84|35=A|34=1|49=TEST_CLIENT_44_4|52=20150519-08:38:23.423|56=FIXIN02|98=0|108=30|141=Y|10=207|
8=FIX.4.4|9=84|35=A|34=1|49=FIXIN02|52=20150519-08:38:23.415|56=TEST_CLIENT_44_4|98=0|108=30|141=Y|10=208|
8=FIX.4.4|9=84|35=A|34=1|49=TEST_CLIENT_44_4|52=20150520-08:38:24.589|56=FIXIN02|98=0|108=30|141=Y|10=213|
8=FIX.4.4|9=84|35=A|34=1|49=FIXIN02|52=20150520-08:38:25.024|56=TEST_CLIENT_44_4|98=0|108=30|141=Y|10=198|
8=FIX.4.4|9=66|35=0|34=2|49=TEST_CLIENT_44_4|52=20150520-08:38:55.564|56=FIXIN02|10=124|
8=FIX.4.4|9=66|35=0|34=2|49=FIXIN02|52=20150520-08:38:55.556|56=TEST_CLIENT_44_4|10=125|
8=FIX.4.4|9=84|35=A|34=1|49=TEST_CLIENT_44_4|52=20150520-08:39:34.005|56=FIXIN02|98=0|108=30|141=Y|10=198|
8=FIX.4.4|9=84|35=A|34=1|49=FIXIN02|52=20150520-08:39:34.008|56=TEST_CLIENT_44_4|98=0|108=30|141=Y|10=201|
8=FIX.4.4|9=66|35=0|34=2|49=FIXIN02|52=20150520-08:40:04.779|56=TEST_CLIENT_44_4|10=119|
8=FIX.4.4|9=66|35=0|34=2|49=TEST_CLIENT_44_4|52=20150520-08:40:04.791|56=FIXIN02|10=113|
8=FIX.4.4|9=66|35=0|34=3|49=FIXIN02|52=20150520-08:40:34.779|56=TEST_CLIENT_44_4|10=123|
8=FIX.4.4|9=66|35=0|34=3|49=TEST_CLIENT_44_4|52=20150520-08:40:34.976|56=FIXIN02|10=122|
8=FIX.4.4|9=66|35=0|34=4|49=FIXIN02|52=20150520-08:41:04.779|56=TEST_CLIENT_44_4|10=122|
8=FIX.4.4|9=66|35=0|34=4|49=TEST_CLIENT_44_4|52=20150520-08:41:05.972|56=FIXIN02|10=118|
8=FIX.4.4|9=84|35=A|34=1|49=TEST_CLIENT_44_4|52=20150520-08:43:18.109|56=FIXIN02|98=0|108=30|141=Y|10=200|
8=FIX.4.4|9=84|35=A|34=1|49=FIXIN02|52=20150520-08:43:18.116|56=TEST_CLIENT_44_4|98=0|108=30|141=Y|10=198|
8=FIX.4.4|9=66|35=0|34=2|49=FIXIN02|52=20150520-08:43:48.779|56=TEST_CLIENT_44_4|10=130|
8=FIX.4.4|9=66|35=0|34=2|49=TEST_CLIENT_44_4|52=20150520-08:43:48.793|56=FIXIN02|10=126|
8=FIX.4.4|9=66|35=0|34=3|49=FIXIN02|52=20150520-08:44:18.780|56=TEST_CLIENT_44_4|10=121|
8=FIX.4.4|9=66|35=0|34=3|49=TEST_CLIENT_44_4|52=20150520-08:44:18.806|56=FIXIN02|10=120|
8=FIX.4.4|9=84|35=A|34=1|49=TEST_CLIENT_44_4|52=20150520-08:44:30.401|56=FIXIN02|98=0|108=30|141=Y|10=190|
8=FIX.4.4|9=84|35=A|34=1|49=FIXIN02|52=20150520-08:44:30.412|56=TEST_CLIENT_44_4|98=0|108=30|141=Y|10=192|
8=FIX.4.4|9=84|35=A|34=1|49=TEST_CLIENT_44_4|52=20150520-08:47:29.814|56=FIXIN02|98=0|108=30|141=Y|10=209|
8=FIX.4.4|9=84|35=A|34=1|49=FIXIN02|52=20150520-08:47:29.816|56=TEST_CLIENT_44_4|98=0|108=30|141=Y|10=211|
8=FIX.4.4|9=66|35=0|34=2|49=TEST_CLIENT_44_4|52=20150520-08:48:00.784|56=FIXIN02|10=119|
8=FIX.4.4|9=66|35=0|34=2|49=FIXIN02|52=20150520-08:48:00.766|56=TEST_CLIENT_44_4|10=119|
8=FIX.4.4|9=84|35=A|34=1|49=TEST_CLIENT_44_4|52=20150520-08:49:48.381|56=FIXIN02|98=0|108=30|141=Y|10=211|
8=FIX.4.4|9=84|35=A|34=1|49=FIXIN02|52=20150520-08:49:48.380|56=TEST_CLIENT_44_4|98=0|108=30|141=Y|10=210|
8=FIX.4.4|9=66|35=0|34=2|49=FIXIN02|52=20150520-08:50:18.779|56=TEST_CLIENT_44_4|10=125|
8=FIX.4.4|9=66|35=0|34=2|49=TEST_CLIENT_44_4|52=20150520-08:50:18.806|56=FIXIN02|10=116|
8=FIX.4.4|9=84|35=A|34=1|49=TEST_CLIENT_44_4|52=20150520-08:59:00.763|56=FIXIN02|98=0|108=30|141=Y|10=204|
8=FIX.4.4|9=84|35=A|34=1|49=FIXIN02|52=20150520-08:59:00.748|56=TEST_CLIENT_44_4|98=0|108=30|141=Y|10=207|
8=FIX.4.4|9=84|35=A|34=1|49=TEST_CLIENT_44_4|52=20150520-08:59:52.851|56=FIXIN02|98=0|108=30|141=Y|10=209|
8=FIX.4.4|9=84|35=A|34=1|49=FIXIN02|52=20150520-08:59:52.843|56=TEST_CLIENT_44_4|98=0|108=30|141=Y|10=210|
8=FIX.4.4|9=66|35=0|34=2|49=FIXIN02|52=20150520-09:00:23.779|56=TEST_CLIENT_44_4|10=117|
8=FIX.4.4|9=66|35=0|34=2|49=TEST_CLIENT_44_4|52=20150520-09:00:23.800|56=FIXIN02|10=102|
8=FIX.4.4|9=66|35=0|34=3|49=FIXIN02|52=20150520-09:00:53.779|56=TEST_CLIENT_44_4|10=121|
8=FIX.4.4|9=66|35=0|34=3|49=TEST_CLIENT_44_4|52=20150520-09:00:53.823|56=FIXIN02|10=111|
8=FIX.4.4|9=66|35=0|34=4|49=FIXIN02|52=20150520-09:01:23.779|56=TEST_CLIENT_44_4|10=120|
8=FIX.4.4|9=66|35=0|34=4|49=TEST_CLIENT_44_4|52=20150520-09:01:24.820|56=FIXIN02|10=108|
8=FIX.4.4|9=66|35=0|34=5|49=FIXIN02|52=20150520-09:01:54.780|56=TEST_CLIENT_44_4|10=117|
8=FIX.4.4|9=66|35=0|34=5|49=TEST_CLIENT_44_4|52=20150520-09:01:54.824|56=FIXIN02|10=116|
8=FIX.4.4|9=66|35=0|34=6|49=FIXIN02|52=20150520-09:02:25.779|56=TEST_CLIENT_44_4|10=125|
8=FIX.4.4|9=66|35=0|34=6|49=TEST_CLIENT_44_4|52=20150520-09:02:25.791|56=FIXIN02|10=119|
8=FIX.4.4|9=66|35=0|34=7|49=FIXIN02|52=20150520-09:02:55.779|56=TEST_CLIENT_44_4|10=129|
8=FIX.4.4|9=66|35=0|34=7|49=TEST_CLIENT_44_4|52=20150520-09:02:55.817|56=FIXIN02|10=122|
8=FIX.4.4|9=66|35=0|34=8|49=FIXIN02|52=20150520-09:03:25.779|56=TEST_CLIENT_44_4|10=128|
8=FIX.4.4|9=66|35=0|34=8|49=TEST_CLIENT_44_4|52=20150520-09:03:25.819|56=FIXIN02|10=123|
8=FIX.4.4|9=84|35=A|34=1|49=TEST_CLIENT_44_4|52=20150520-09:17:17.123|56=FIXIN02|98=0|108=30|141=Y|10=197|
8=FIX.4.4|9=84|35=A|34=1|49=FIXIN02|52=20150520-09:17:17.123|56=TEST_CLIENT_44_4|98=0|108=30|141=Y|10=197|
8=FIX.4.4|9=84|35=A|34=1|49=TEST_CLIENT_44_4|52=20150520-09:18:00.047|56=FIXIN02|98=0|108=30|141=Y|10=195|
8=FIX.4.4|9=84|35=A|34=1|49=FIXIN02|52=20150520-09:18:00.048|56=TEST_CLIENT_44_4|98=0|108=30|141=Y|10=196|
8=FIX.4.4|9=84|35=A|34=1|49=TEST_CLIENT_44_4|52=20150520-09:18:08.906|56=FIXIN02|98=0|108=30|141=Y|10=207|
8=FIX.4.4|9=84|35=A|34=1|49=FIXIN02|52=20150520-09:18:08.901|56=TEST_CLIENT_44_4|98=0|108=30|141=Y|10=202|
8=FIX.4.4|9=78|35=A|34=2|49=TEST_CLIENT_44_4|52=20150520-09:18:14.391|56=FIXIN02|98=0|108=30|10=161|
8=FIX.4.4|9=66|35=0|34=2|49=FIXIN02|52=20150520-09:18:39.250|56=TEST_CLIENT_44_4|10=117|
8=FIX.4.4|9=66|35=0|34=2|49=TEST_CLIENT_44_4|52=20150520-09:18:39.274|56=FIXIN02|10=123|
8=FIX.4.4|9=78|35=A|34=3|49=TEST_CLIENT_44_4|52=20150520-09:18:44.375|56=FIXIN02|98=0|108=30|10=167|
8=FIX.4.4|9=84|35=A|34=1|49=TEST_CLIENT_44_4|52=20150520-09:19:14.375|56=FIXIN02|98=0|108=30|141=Y|10=205|
8=FIX.4.4|9=84|35=A|34=1|49=FIXIN02|52=20150520-09:19:14.370|56=TEST_CLIENT_44_4|98=0|108=30|141=Y|10=200|
8=FIX.4.4|9=66|35=0|34=2|49=FIXIN02|52=20150520-09:19:45.250|56=TEST_CLIENT_44_4|10=115|
8=FIX.4.4|9=66|35=0|34=2|49=TEST_CLIENT_44_4|52=20150520-09:19:45.271|56=FIXIN02|10=118|
8=FIX.4.4|9=66|35=0|34=3|49=FIXIN02|52=20150520-09:20:15.250|56=TEST_CLIENT_44_4|10=105|
8=FIX.4.4|9=66|35=0|34=3|49=TEST_CLIENT_44_4|52=20150520-09:20:15.271|56=FIXIN02|10=108|
8=FIX.4.4|9=84|35=A|34=1|49=TEST_CLIENT_44_4|52=20150520-09:20:48.375|56=FIXIN02|98=0|108=30|141=Y|10=204|
8=FIX.4.4|9=84|35=A|34=1|49=FIXIN02|52=20150520-09:20:48.376|56=TEST_CLIENT_44_4|98=0|108=30|141=Y|10=205|
8=FIX.4.4|9=84|35=A|34=1|49=TEST_CLIENT_44_4|52=20150520-09:23:26.326|56=FIXIN02|98=0|108=30|141=Y|10=199|
8=FIX.4.4|9=84|35=A|34=1|49=FIXIN02|52=20150520-09:23:26.322|56=TEST_CLIENT_44_4|98=0|108=30|141=Y|10=195|
8=FIX.4.4|9=84|35=A|34=1|49=TEST_CLIENT_44_4|52=20150520-09:24:11.907|56=FIXIN02|98=0|108=30|141=Y|10=199|
8=FIX.4.4|9=84|35=A|34=1|49=FIXIN02|52=20150520-09:24:11.906|56=TEST_CLIENT_44_4|98=0|108=30|141=Y|10=198|
8=FIX.4.4|9=84|35=A|34=1|49=TEST_CLIENT_44_4|52=20150520-10:55:01.088|56=FIXIN02|98=0|108=30|141=Y|10=194|
8=FIX.4.4|9=84|35=A|34=1|49=FIXIN02|52=20150520-10:55:01.101|56=TEST_CLIENT_44_4|98=0|108=30|141=Y|10=180|
8=FIX.4.4|9=84|35=A|34=1|49=TEST_CLIENT_44_4|52=20150521-02:45:52.376|56=FIXIN02|98=0|108=30|141=Y|10=201|
8=FIX.4.4|9=84|35=A|34=1|49=FIXIN02|52=20150521-02:45:52.407|56=TEST_CLIENT_44_4|98=0|108=30|141=Y|10=196|
8=FIX.4.4|9=66|35=0|34=2|49=FIXIN02|52=20150521-02:46:22.581|56=TEST_CLIENT_44_4|10=111|
8=FIX.4.4|9=66|35=0|34=2|49=TEST_CLIENT_44_4|52=20150521-02:46:22.573|56=FIXIN02|10=112|
8=FIX.4.4|9=66|35=0|34=3|49=FIXIN02|52=20150521-02:46:52.581|56=TEST_CLIENT_44_4|10=115|
8=FIX.4.4|9=66|35=0|34=3|49=TEST_CLIENT_44_4|52=20150521-02:46:53.339|56=FIXIN02|10=117|
8=FIX.4.4|9=66|35=0|34=4|49=FIXIN02|52=20150521-02:47:22.581|56=TEST_CLIENT_44_4|10=114|
8=FIX.4.4|9=66|35=0|34=4|49=TEST_CLIENT_44_4|52=20150521-02:47:23.342|56=FIXIN02|10=110|
8=FIX.4.4|9=66|35=0|34=5|49=FIXIN02|52=20150521-02:47:52.581|56=TEST_CLIENT_44_4|10=118|
8=FIX.4.4|9=78|35=A|34=5|49=TEST_CLIENT_44_4|52=20150521-02:47:52.586|56=FIXIN02|98=0|108=30|10=168|
8=FIX.4.4|9=66|35=0|34=5|49=TEST_CLIENT_44_4|52=20150521-02:47:53.347|56=FIXIN02|10=119|
8=FIX.4.4|9=66|35=0|34=6|49=FIXIN02|52=20150521-02:48:22.581|56=TEST_CLIENT_44_4|10=117|
8=FIX.4.4|9=78|35=A|34=6|49=TEST_CLIENT_44_4|52=20150521-02:48:22.571|56=FIXIN02|98=0|108=30|10=161|
8=FIX.4.4|9=66|35=0|34=6|49=TEST_CLIENT_44_4|52=20150521-02:48:24.345|56=FIXIN02|10=117|
8=FIX.4.4|9=66|35=0|34=7|49=FIXIN02|52=20150521-02:48:52.581|56=TEST_CLIENT_44_4|10=121|
8=FIX.4.4|9=66|35=0|34=7|49=TEST_CLIENT_44_4|52=20150521-02:48:55.338|56=FIXIN02|10=124|
8=FIX.4.4|9=66|35=0|34=8|49=FIXIN02|52=20150521-02:49:22.581|56=TEST_CLIENT_44_4|10=120|
8=FIX.4.4|9=66|35=0|34=8|49=TEST_CLIENT_44_4|52=20150521-02:49:25.346|56=FIXIN02|10=122|
8=FIX.4.4|9=66|35=0|34=9|49=FIXIN02|52=20150521-02:49:52.581|56=TEST_CLIENT_44_4|10=124|
8=FIX.4.4|9=66|35=0|34=9|49=TEST_CLIENT_44_4|52=20150521-02:49:56.319|56=FIXIN02|10=127|
8=FIX.4.4|9=67|35=0|34=10|49=FIXIN02|52=20150521-02:50:23.581|56=TEST_CLIENT_44_4|10=155|
8=FIX.4.4|9=67|35=0|34=10|49=TEST_CLIENT_44_4|52=20150521-02:50:26.337|56=FIXIN02|10=157|
8=FIX.4.4|9=67|35=0|34=11|49=FIXIN02|52=20150521-02:50:53.581|56=TEST_CLIENT_44_4|10=159|
8=FIX.4.4|9=67|35=0|34=11|49=TEST_CLIENT_44_4|52=20150521-02:50:56.343|56=FIXIN02|10=158|
8=FIX.4.4|9=67|35=0|34=12|49=FIXIN02|52=20150521-02:51:23.581|56=TEST_CLIENT_44_4|10=158|
8=FIX.4.4|9=67|35=0|34=12|49=TEST_CLIENT_44_4|52=20150521-02:51:26.345|56=FIXIN02|10=159|
8=FIX.4.4|9=67|35=0|34=13|49=FIXIN02|52=20150521-02:51:53.581|56=TEST_CLIENT_44_4|10=162|
8=FIX.4.4|9=67|35=0|34=13|49=TEST_CLIENT_44_4|52=20150521-02:51:57.339|56=FIXIN02|10=167|
8=FIX.4.4|9=67|35=0|34=14|49=FIXIN02|52=20150521-02:52:24.581|56=TEST_CLIENT_44_4|10=162|
8=FIX.4.4|9=67|35=0|34=14|49=TEST_CLIENT_44_4|52=20150521-02:52:28.338|56=FIXIN02|10=166|
8=FIX.4.4|9=67|35=0|34=15|49=FIXIN02|52=20150521-02:52:54.581|56=TEST_CLIENT_44_4|10=166|
8=FIX.4.4|9=67|35=0|34=15|49=TEST_CLIENT_44_4|52=20150521-02:52:58.341|56=FIXIN02|10=164|
8=FIX.4.4|9=67|35=0|34=16|49=FIXIN02|52=20150521-02:53:24.581|56=TEST_CLIENT_44_4|10=165|
8=FIX.4.4|9=67|35=0|34=16|49=TEST_CLIENT_44_4|52=20150521-02:53:29.338|56=FIXIN02|10=170|
8=FIX.4.4|9=67|35=0|34=17|49=FIXIN02|52=20150521-02:53:54.581|56=TEST_CLIENT_44_4|10=169|
8=FIX.4.4|9=67|35=0|34=17|49=TEST_CLIENT_44_4|52=20150521-02:53:59.344|56=FIXIN02|10=171|
8=FIX.4.4|9=67|35=0|34=18|49=FIXIN02|52=20150521-02:54:24.582|56=TEST_CLIENT_44_4|10=169|
8=FIX.4.4|9=67|35=0|34=18|49=TEST_CLIENT_44_4|52=20150521-02:54:30.343|56=FIXIN02|10=161|
8=FIX.4.4|9=67|35=0|34=19|49=FIXIN02|52=20150521-02:54:55.582|56=TEST_CLIENT_44_4|10=174|
8=FIX.4.4|9=67|35=0|34=19|49=TEST_CLIENT_44_4|52=20150521-02:55:01.338|56=FIXIN02|10=165|
8=FIX.4.4|9=67|35=0|34=20|49=FIXIN02|52=20150521-02:55:26.581|56=TEST_CLIENT_44_4|10=164|
8=FIX.4.4|9=67|35=0|34=20|49=TEST_CLIENT_44_4|52=20150521-02:55:32.337|56=FIXIN02|10=160|
8=FIX.4.4|9=67|35=0|34=21|49=FIXIN02|52=20150521-02:55:56.581|56=TEST_CLIENT_44_4|10=168|
8=FIX.4.4|9=67|35=0|34=21|49=TEST_CLIENT_44_4|52=20150521-02:56:02.338|56=FIXIN02|10=160|
8=FIX.4.4|9=67|35=0|34=22|49=FIXIN02|52=20150521-02:56:26.581|56=TEST_CLIENT_44_4|10=167|
8=FIX.4.4|9=67|35=0|34=22|49=TEST_CLIENT_44_4|52=20150521-02:56:33.337|56=FIXIN02|10=164|
8=FIX.4.4|9=67|35=0|34=23|49=FIXIN02|52=20150521-02:56:56.581|56=TEST_CLIENT_44_4|10=171|
8=FIX.4.4|9=79|35=A|34=23|49=TEST_CLIENT_44_4|52=20150521-02:56:58.603|56=FIXIN02|98=0|108=30|10=213|
8=FIX.4.4|9=67|35=0|34=23|49=TEST_CLIENT_44_4|52=20150521-02:57:03.337|56=FIXIN02|10=163|
8=FIX.4.4|9=79|35=A|34=24|49=TEST_CLIENT_44_4|52=20150521-02:57:08.702|56=FIXIN02|98=0|108=30|10=210|
8=FIX.4.4|9=67|35=0|34=24|49=FIXIN02|52=20150521-02:57:26.581|56=TEST_CLIENT_44_4|10=170|
8=FIX.4.4|9=67|35=0|34=24|49=TEST_CLIENT_44_4|52=20150521-02:57:34.336|56=FIXIN02|10=167|
8=FIX.4.4|9=67|35=0|34=25|49=FIXIN02|52=20150521-02:57:56.581|56=TEST_CLIENT_44_4|10=174|
8=FIX.4.4|9=67|35=0|34=25|49=TEST_CLIENT_44_4|52=20150521-02:58:04.336|56=FIXIN02|10=166|
8=FIX.4.4|9=67|35=0|34=26|49=FIXIN02|52=20150521-02:58:26.581|56=TEST_CLIENT_44_4|10=173|
8=FIX.4.4|9=67|35=0|34=26|49=TEST_CLIENT_44_4|52=20150521-02:58:34.342|56=FIXIN02|10=167|
8=FIX.4.4|9=67|35=0|34=27|49=FIXIN02|52=20150521-02:58:56.581|56=TEST_CLIENT_44_4|10=177|
8=FIX.4.4|9=67|35=0|34=27|49=TEST_CLIENT_44_4|52=20150521-02:59:05.334|56=FIXIN02|10=168|
8=FIX.4.4|9=67|35=0|34=28|49=FIXIN02|52=20150521-02:59:26.581|56=TEST_CLIENT_44_4|10=176|
8=FIX.4.4|9=67|35=0|34=28|49=TEST_CLIENT_44_4|52=20150521-02:59:36.330|56=FIXIN02|10=169|
8=FIX.4.4|9=67|35=0|34=29|49=FIXIN02|52=20150521-02:59:57.581|56=TEST_CLIENT_44_4|10=181|
8=FIX.4.4|9=84|35=A|34=1|49=TEST_CLIENT_44_4|52=20150521-03:05:28.041|56=FIXIN02|98=0|108=30|141=Y|10=190|
8=FIX.4.4|9=84|35=A|34=1|49=FIXIN02|52=20150521-03:05:28.104|56=TEST_CLIENT_44_4|98=0|108=30|141=Y|10=190|
8=FIX.4.4|9=195|35=D|34=2|49=TEST_CLIENT_44_4|52=20150521-03:05:32.191|56=FIXIN02|1=0001210287|11=1432177527578|15=VND|21=1|22=2|38=2000|40=2|44=20300|48=B3D53Y7|54=1|55=SVC|59=0|60=20150521-03:05:27.181|207=VN|10=087|
8=FIX.4.4|9=454|35=8|34=2|49=FIXIN02|52=20150521-03:05:32.232|56=TEST_CLIENT_44_4|1=0001210287|6=0|11=1432177527578|14=0|17=052115-FIXIN02-41-0-TEST_CLIENT_44_4-1432177527578|31=0|32=0|37=052115-FIXIN02-41-0-TEST_CLIENT_44_4-1432177527578|38=2000|39=8|40=2|44=20300|54=1|55=SVC|58=SEC 0 : Broker Exchange Option --- Additional Info: Price 20300 is higher than ceiling price 17700 of symbol SVC|59=0|60=20150521-03:05:32.232|103=0|150=8|151=0|336=1|376=0001210287,2000,0|10=076|
8=FIX.4.4|9=194|35=D|34=3|49=TEST_CLIENT_44_4|52=20150521-03:05:32.292|56=FIXIN02|1=0001210287|11=1432177533194|15=VND|21=1|22=2|38=500|40=2|44=10700|48=B3D53Y7|54=2|55=GTN|59=0|60=20150521-03:05:32.292|207=VN|10=035|
8=FIX.4.4|9=449|35=8|34=3|49=FIXIN02|52=20150521-03:05:32.334|56=TEST_CLIENT_44_4|1=0001210287|6=0|11=1432177533194|14=0|17=052115-FIXIN02-42-0-TEST_CLIENT_44_4-1432177533194|31=0|32=0|37=052115-FIXIN02-42-0-TEST_CLIENT_44_4-1432177533194|38=500|39=8|40=2|44=10700|54=2|55=GTN|58=SEC 0 : Broker Exchange Option --- Additional Info: Price 10700 is lower than floor price 14300 of symbol GTN|59=0|60=20150521-03:05:32.334|103=0|150=8|151=0|336=1|376=0001210287,500,0|10=215|
8=FIX.4.4|9=194|35=D|34=4|49=TEST_CLIENT_44_4|52=20150521-03:05:32.392|56=FIXIN02|1=0001210287|11=1432177532877|15=VND|21=1|22=2|38=600|40=2|44=21800|48=B3D53Y7|54=2|55=TSC|59=0|60=20150521-03:05:32.392|207=VN|10=050|
8=FIX.4.4|9=449|35=8|34=4|49=FIXIN02|52=20150521-03:05:32.432|56=TEST_CLIENT_44_4|1=0001210287|6=0|11=1432177532877|14=0|17=052115-FIXIN02-43-0-TEST_CLIENT_44_4-1432177532877|31=0|32=0|37=052115-FIXIN02-43-0-TEST_CLIENT_44_4-1432177532877|38=600|39=8|40=2|44=21800|54=2|55=TSC|58=SEC 0 : Broker Exchange Option --- Additional Info: Price 21800 is lower than floor price 51000 of symbol TSC|59=0|60=20150521-03:05:32.432|103=0|150=8|151=0|336=1|376=0001210287,600,0|10=245|
8=FIX.4.4|9=195|35=D|34=5|49=TEST_CLIENT_44_4|52=20150521-03:05:32.492|56=FIXIN02|1=0001210287|11=1432177533130|15=VND|21=1|22=2|38=4000|40=2|44=24800|48=B3D53Y7|54=1|55=HHS|59=0|60=20150521-03:05:32.492|207=VN|10=078|
8=FIX.4.4|9=454|35=8|34=5|49=FIXIN02|52=20150521-03:05:32.532|56=TEST_CLIENT_44_4|1=0001210287|6=0|11=1432177533130|14=0|17=052115-FIXIN02-44-0-TEST_CLIENT_44_4-1432177533130|31=0|32=0|37=052115-FIXIN02-44-0-TEST_CLIENT_44_4-1432177533130|38=4000|39=8|40=2|44=24800|54=1|55=HHS|58=SEC 0 : Broker Exchange Option --- Additional Info: Price 24800 is higher than ceiling price 19100 of symbol HHS|59=0|60=20150521-03:05:32.532|103=0|150=8|151=0|336=1|376=0001210287,4000,0|10=034|
8=FIX.4.4|9=194|35=D|34=6|49=TEST_CLIENT_44_4|52=20150521-03:05:32.592|56=FIXIN02|1=0001210287|11=1432177532951|15=VND|21=1|22=2|38=5000|40=2|44=7100|48=B3D53Y7|54=1|55=HAR|59=0|60=20150521-03:05:32.592|207=VN|10=029|
8=FIX.4.4|9=448|35=8|34=6|49=FIXIN02|52=20150521-03:05:32.632|56=TEST_CLIENT_44_4|1=0001210287|6=0|11=1432177532951|14=0|17=052115-FIXIN02-45-0-TEST_CLIENT_44_4-1432177532951|31=0|32=0|37=052115-FIXIN02-45-0-TEST_CLIENT_44_4-1432177532951|38=5000|39=8|40=2|44=7100|54=1|55=HAR|58=SEC 0 : Broker Exchange Option --- Additional Info: Price 7100 is lower than floor price 9100 of symbol HAR|59=0|60=20150521-03:05:32.632|103=0|150=8|151=0|336=1|376=0001210287,5000,0|10=150|
8=FIX.4.4|9=195|35=D|34=7|49=TEST_CLIENT_44_4|52=20150521-03:05:32.692|56=FIXIN02|1=0001210287|11=1432177533045|15=VND|21=1|22=2|38=10000|40=2|44=8900|48=B3D53Y7|54=1|55=HAI|59=0|60=20150521-03:05:32.692|207=VN|10=072|
8=FIX.4.4|9=451|35=8|34=7|49=FIXIN02|52=20150521-03:05:32.732|56=TEST_CLIENT_44_4|1=0001210287|6=0|11=1432177533045|14=0|17=052115-FIXIN02-46-0-TEST_CLIENT_44_4-1432177533045|31=0|32=0|37=052115-FIXIN02-46-0-TEST_CLIENT_44_4-1432177533045|38=10000|39=8|40=2|44=8900|54=1|55=HAI|58=SEC 0 : Broker Exchange Option --- Additional Info: Price 8900 is lower than floor price 12600 of symbol HAI|59=0|60=20150521-03:05:32.732|103=0|150=8|151=0|336=1|376=0001210287,10000,0|10=013|
8=FIX.4.4|9=195|35=D|34=8|49=TEST_CLIENT_44_4|52=20150521-03:05:32.792|56=FIXIN02|1=0001210287|11=1432177532901|15=VND|21=1|22=2|38=3000|40=2|44=15500|48=B3D53Y7|54=1|55=API|59=0|60=20150521-03:05:32.792|207=VN|10=079|
8=FIX.4.4|9=403|35=8|34=8|49=FIXIN02|52=20150521-03:05:32.926|56=TEST_CLIENT_44_4|1=0001210287|6=0|11=1432177532901|14=0|17=052115100532-HNX_GATEWAY_MATCHING-18-ORS_1_ACTIVE_UAT-0|19=API0211GW052115-FIXIN02-47-0-TEST_CLIENT_44_4-1432177532901|31=0|32=0|37=052115-FIXIN02-47-0-TEST_CLIENT_44_4-1432177532901|38=3000|39=0|40=2|44=15500|54=1|55=API|59=0|60=20150521-03:05:32.926|150=0|151=3000|336=2|376=0001210287,3000,9|10=125|
8=FIX.4.4|9=196|35=D|34=9|49=TEST_CLIENT_44_4|52=20150521-03:05:32.992|56=FIXIN02|1=0001210287|11=1432177533561|15=VND|21=1|22=2|38=15000|40=2|44=22500|48=B3D53Y7|54=1|55=HBC|59=0|60=20150521-03:05:32.992|207=VN|10=124|
8=FIX.4.4|9=456|35=8|34=9|49=FIXIN02|52=20150521-03:05:33.031|56=TEST_CLIENT_44_4|1=0001210287|6=0|11=1432177533561|14=0|17=052115-FIXIN02-48-0-TEST_CLIENT_44_4-1432177533561|31=0|32=0|37=052115-FIXIN02-48-0-TEST_CLIENT_44_4-1432177533561|38=15000|39=8|40=2|44=22500|54=1|55=HBC|58=SEC 0 : Broker Exchange Option --- Additional Info: Price 22500 is higher than ceiling price 16200 of symbol HBC|59=0|60=20150521-03:05:33.031|103=0|150=8|151=0|336=1|376=0001210287,15000,0|10=106|
8=FIX.4.4|9=194|35=D|34=10|49=TEST_CLIENT_44_4|52=20150521-03:05:33.092|56=FIXIN02|1=0001210287|11=1432177533635|15=VND|21=1|22=2|38=50|40=2|44=13700|48=B3D53Y7|54=1|55=CMG|59=0|60=20150521-03:05:33.092|207=VN|10=015|
8=FIX.4.4|9=450|35=8|34=10|49=FIXIN02|52=20150521-03:05:33.131|56=TEST_CLIENT_44_4|1=0001210287|6=0|11=1432177533635|14=0|17=052115-FIXIN02-49-0-TEST_CLIENT_44_4-1432177533635|31=0|32=0|37=052115-FIXIN02-49-0-TEST_CLIENT_44_4-1432177533635|38=50|39=8|40=2|44=13700|54=1|55=CMG|58=SEC 0 : Broker Exchange Option --- Additional Info: Price 13700 is higher than ceiling price 9800 of symbol CMG|59=0|60=20150521-03:05:33.131|103=0|150=8|151=0|336=1|376=0001210287,50,0|10=100|
8=FIX.4.4|9=195|35=D|34=11|49=TEST_CLIENT_44_4|52=20150521-03:05:33.192|56=FIXIN02|1=0001210287|11=1432177534106|15=VND|21=1|22=2|38=500|40=2|44=14100|48=B3D53Y7|54=1|55=FIT|59=0|60=20150521-03:05:33.192|207=VN|10=068|
8=FIX.4.4|9=450|35=8|34=11|49=FIXIN02|52=20150521-03:05:33.232|56=TEST_CLIENT_44_4|1=0001210287|6=0|11=1432177534106|14=0|17=052115-FIXIN02-50-0-TEST_CLIENT_44_4-1432177534106|31=0|32=0|37=052115-FIXIN02-50-0-TEST_CLIENT_44_4-1432177534106|38=500|39=8|40=2|44=14100|54=1|55=FIT|58=SEC 0 : Broker Exchange Option --- Additional Info: Price 14100 is lower than floor price 15900 of symbol FIT|59=0|60=20150521-03:05:33.232|103=0|150=8|151=0|336=2|376=0001210287,500,0|10=221|
8=FIX.4.4|9=195|35=D|34=12|49=TEST_CLIENT_44_4|52=20150521-03:05:33.293|56=FIXIN02|1=0001210287|11=1432177533529|15=VND|21=1|22=2|38=500|40=2|44=22000|48=B3D53Y7|54=2|55=TSC|59=0|60=20150521-03:05:33.293|207=VN|10=087|
8=FIX.4.4|9=450|35=8|34=12|49=FIXIN02|52=20150521-03:05:33.334|56=TEST_CLIENT_44_4|1=0001210287|6=0|11=1432177533529|14=0|17=052115-FIXIN02-51-0-TEST_CLIENT_44_4-1432177533529|31=0|32=0|37=052115-FIXIN02-51-0-TEST_CLIENT_44_4-1432177533529|38=500|39=8|40=2|44=22000|54=2|55=TSC|58=SEC 0 : Broker Exchange Option --- Additional Info: Price 22000 is lower than floor price 51000 of symbol TSC|59=0|60=20150521-03:05:33.334|103=0|150=8|151=0|336=1|376=0001210287,500,0|10=255|
8=FIX.4.4|9=196|35=D|34=13|49=TEST_CLIENT_44_4|52=20150521-03:05:33.393|56=FIXIN02|1=0001210287|11=1432177534352|15=VND|21=1|22=2|38=5000|40=2|44=13000|48=B3D53Y7|54=2|55=NDN|59=0|60=20150521-03:05:33.393|207=VN|10=124|
8=FIX.4.4|9=452|35=8|34=13|49=FIXIN02|52=20150521-03:05:33.433|56=TEST_CLIENT_44_4|1=0001210287|6=0|11=1432177534352|14=0|17=052115-FIXIN02-52-0-TEST_CLIENT_44_4-1432177534352|31=0|32=0|37=052115-FIXIN02-52-0-TEST_CLIENT_44_4-1432177534352|38=5000|39=8|40=2|44=13000|54=2|55=NDN|58=SEC 0 : Broker Exchange Option --- Additional Info: Price 13000 is lower than floor price 15200 of symbol NDN|59=0|60=20150521-03:05:33.433|103=0|150=8|151=0|336=2|376=0001210287,5000,0|10=068|
8=FIX.4.4|9=194|35=D|34=14|49=TEST_CLIENT_44_4|52=20150521-03:05:33.493|56=FIXIN02|1=0001210287|11=1432177534297|15=VND|21=1|22=2|38=400|40=2|44=3200|48=B3D53Y7|54=1|55=PVV|59=0|60=20150521-03:05:33.493|207=VN|10=064|
8=FIX.4.4|9=450|35=8|34=14|49=FIXIN02|52=20150521-03:05:33.532|56=TEST_CLIENT_44_4|1=0001210287|6=0|11=1432177534297|14=0|17=052115-FIXIN02-53-0-TEST_CLIENT_44_4-1432177534297|31=0|32=0|37=052115-FIXIN02-53-0-TEST_CLIENT_44_4-1432177534297|38=400|39=8|40=2|44=3200|54=1|55=PVV|58=SEC 0 : Broker Exchange Option --- Additional Info: Price 3200 is higher than ceiling price 2800 of symbol PVV|59=0|60=20150521-03:05:33.532|103=0|150=8|151=0|336=2|376=0001210287,400,0|10=173|
8=FIX.4.4|9=197|35=D|34=15|49=TEST_CLIENT_44_4|52=20150521-03:05:33.593|56=FIXIN02|1=0001210287|11=1432177533683|15=VND|21=1|22=2|38=19990|40=2|44=21000|48=B3D53Y7|54=1|55=SSI|59=0|60=20150521-03:05:33.593|207=VN|10=221|
8=FIX.4.4|9=454|35=8|34=15|49=FIXIN02|52=20150521-03:05:33.633|56=TEST_CLIENT_44_4|1=0001210287|6=0|11=1432177533683|14=0|17=052115-FIXIN02-54-0-TEST_CLIENT_44_4-1432177533683|31=0|32=0|37=052115-FIXIN02-54-0-TEST_CLIENT_44_4-1432177533683|38=19990|39=8|40=2|44=21000|54=1|55=SSI|58=SEC 0 : Broker Exchange Option --- Additional Info: Price 21000 is lower than floor price 25100 of symbol SSI|59=0|60=20150521-03:05:33.633|103=0|150=8|151=0|336=1|376=0001210287,19990,0|10=010|
8=FIX.4.4|9=195|35=D|34=16|49=TEST_CLIENT_44_4|52=20150521-03:05:33.693|56=FIXIN02|1=0001210287|11=1432177533908|15=VND|21=1|22=2|38=500|40=2|44=10600|48=B3D53Y7|54=2|55=FLC|59=0|60=20150521-03:05:33.693|207=VN|10=082|
8=FIX.4.4|9=443|35=8|34=16|49=FIXIN02|52=20150521-03:05:33.733|56=TEST_CLIENT_44_4|1=0001210287|6=0|11=1432177533908|14=0|17=052115-FIXIN02-55-0-TEST_CLIENT_44_4-1432177533908|31=0|32=0|37=052115-FIXIN02-55-0-TEST_CLIENT_44_4-1432177533908|38=500|39=8|40=2|44=10600|54=2|55=FLC|58=SEC 3 : Order exceeds limit --- Additional Info: SubAccount 0001210287 has balance 0 . Hold 500 failed|59=0|60=20150521-03:05:33.733|103=3|150=8|151=0|336=1|376=0001210287,500,0|10=123|
8=FIX.4.4|9=197|35=D|34=17|49=TEST_CLIENT_44_4|52=20150521-03:05:33.793|56=FIXIN02|1=0001210287|11=1432177534691|15=VND|21=1|22=2|38=10000|40=2|44=21000|48=B3D53Y7|54=1|55=SSI|59=0|60=20150521-03:05:33.793|207=VN|10=200|
8=FIX.4.4|9=454|35=8|34=17|49=FIXIN02|52=20150521-03:05:33.839|56=TEST_CLIENT_44_4|1=0001210287|6=0|11=1432177534691|14=0|17=052115-FIXIN02-56-0-TEST_CLIENT_44_4-1432177534691|31=0|32=0|37=052115-FIXIN02-56-0-TEST_CLIENT_44_4-1432177534691|38=10000|39=8|40=2|44=21000|54=1|55=SSI|58=SEC 0 : Broker Exchange Option --- Additional Info: Price 21000 is lower than floor price 25100 of symbol SSI|59=0|60=20150521-03:05:33.839|103=0|150=8|151=0|336=1|376=0001210287,10000,0|10=234|
8=FIX.4.4|9=197|35=D|34=18|49=TEST_CLIENT_44_4|52=20150521-03:05:33.893|56=FIXIN02|1=0001210287|11=1432177534714|15=VND|21=1|22=2|38=10010|40=2|44=21000|48=B3D53Y7|54=1|55=SSI|59=0|60=20150521-03:05:33.893|207=VN|10=200|
8=FIX.4.4|9=454|35=8|34=18|49=FIXIN02|52=20150521-03:05:33.932|56=TEST_CLIENT_44_4|1=0001210287|6=0|11=1432177534714|14=0|17=052115-FIXIN02-57-0-TEST_CLIENT_44_4-1432177534714|31=0|32=0|37=052115-FIXIN02-57-0-TEST_CLIENT_44_4-1432177534714|38=10010|39=8|40=2|44=21000|54=1|55=SSI|58=SEC 0 : Broker Exchange Option --- Additional Info: Price 21000 is lower than floor price 25100 of symbol SSI|59=0|60=20150521-03:05:33.932|103=0|150=8|151=0|336=1|376=0001210287,10010,0|10=215|
8=FIX.4.4|9=196|35=D|34=19|49=TEST_CLIENT_44_4|52=20150521-03:05:33.993|56=FIXIN02|1=0001210287|11=1432177534794|15=VND|21=1|22=2|38=3000|40=2|44=54000|48=B3D53Y7|54=2|55=PVD|59=0|60=20150521-03:05:33.993|207=VN|10=165|
8=FIX.4.4|9=452|35=8|34=19|49=FIXIN02|52=20150521-03:05:34.032|56=TEST_CLIENT_44_4|1=0001210287|6=0|11=1432177534794|14=0|17=052115-FIXIN02-58-0-TEST_CLIENT_44_4-1432177534794|31=0|32=0|37=052115-FIXIN02-58-0-TEST_CLIENT_44_4-1432177534794|38=3000|39=8|40=2|44=54000|54=2|55=PVD|58=SEC 0 : Broker Exchange Option --- Additional Info: Price 54000 is lower than floor price 57500 of symbol PVD|59=0|60=20150521-03:05:34.032|103=0|150=8|151=0|336=1|376=0001210287,3000,0|10=142|
8=FIX.4.4|9=195|35=D|34=20|49=TEST_CLIENT_44_4|52=20150521-03:05:34.093|56=FIXIN02|1=0001210287|11=1432177534539|15=VND|21=1|22=2|38=1000|40=2|44=9300|48=B3D53Y7|54=2|55=VHG|59=0|60=20150521-03:05:34.093|207=VN|10=085|
8=FIX.4.4|9=450|35=8|34=20|49=FIXIN02|52=20150521-03:05:34.132|56=TEST_CLIENT_44_4|1=0001210287|6=0|11=1432177534539|14=0|17=052115-FIXIN02-59-0-TEST_CLIENT_44_4-1432177534539|31=0|32=0|37=052115-FIXIN02-59-0-TEST_CLIENT_44_4-1432177534539|38=1000|39=8|40=2|44=9300|54=2|55=VHG|58=SEC 0 : Broker Exchange Option --- Additional Info: Price 9300 is lower than floor price 12100 of symbol VHG|59=0|60=20150521-03:05:34.132|103=0|150=8|151=0|336=1|376=0001210287,1000,0|10=010|
8=FIX.4.4|9=196|35=D|34=21|49=TEST_CLIENT_44_4|52=20150521-03:05:34.193|56=FIXIN02|1=0001210287|11=1432177534961|15=VND|21=1|22=2|38=11100|40=2|44=6400|48=B3D53Y7|54=2|55=NAG|59=0|60=20150521-03:05:34.193|207=VN|10=121|
8=FIX.4.4|9=448|35=8|34=21|49=FIXIN02|52=20150521-03:05:34.232|56=TEST_CLIENT_44_4|1=0001210287|6=0|11=1432177534961|14=0|17=052115-FIXIN02-60-0-TEST_CLIENT_44_4-1432177534961|31=0|32=0|37=052115-FIXIN02-60-0-TEST_CLIENT_44_4-1432177534961|38=11100|39=8|40=2|44=6400|54=2|55=NAG|58=SEC 3 : Order exceeds limit --- Additional Info: SubAccount 0001210287 has balance 0 . Hold 11100 failed|59=0|60=20150521-03:05:34.232|103=3|150=8|151=0|336=2|376=0001210287,11100,0|10=089|
8=FIX.4.4|9=195|35=D|34=22|49=TEST_CLIENT_44_4|52=20150521-03:05:34.294|56=FIXIN02|1=0001210287|11=1432177534543|15=VND|21=1|22=2|38=3000|40=2|44=9000|48=B3D53Y7|54=2|55=HAI|59=0|60=20150521-03:05:34.294|207=VN|10=068|
8=FIX.4.4|9=450|35=8|34=22|49=FIXIN02|52=20150521-03:05:34.335|56=TEST_CLIENT_44_4|1=0001210287|6=0|11=1432177534543|14=0|17=052115-FIXIN02-61-0-TEST_CLIENT_44_4-1432177534543|31=0|32=0|37=052115-FIXIN02-61-0-TEST_CLIENT_44_4-1432177534543|38=3000|39=8|40=2|44=9000|54=2|55=HAI|58=SEC 0 : Broker Exchange Option --- Additional Info: Price 9000 is lower than floor price 12600 of symbol HAI|59=0|60=20150521-03:05:34.335|103=0|150=8|151=0|336=1|376=0001210287,3000,0|10=214|
8=FIX.4.4|9=195|35=D|34=23|49=TEST_CLIENT_44_4|52=20150521-03:05:34.394|56=FIXIN02|1=0001210287|11=1432177534612|15=VND|21=1|22=2|38=5000|40=2|44=7200|48=B3D53Y7|54=1|55=KLF|59=0|60=20150521-03:05:34.394|207=VN|10=080|
8=FIX.4.4|9=450|35=8|34=23|49=FIXIN02|52=20150521-03:05:34.433|56=TEST_CLIENT_44_4|1=0001210287|6=0|11=1432177534612|14=0|17=052115-FIXIN02-62-0-TEST_CLIENT_44_4-1432177534612|31=0|32=0|37=052115-FIXIN02-62-0-TEST_CLIENT_44_4-1432177534612|38=5000|39=8|40=2|44=7200|54=1|55=KLF|58=SEC 0 : Broker Exchange Option --- Additional Info: Price 7200 is lower than floor price 10300 of symbol KLF|59=0|60=20150521-03:05:34.433|103=0|150=8|151=0|336=2|376=0001210287,5000,0|10=227|
8=FIX.4.4|9=197|35=D|34=24|49=TEST_CLIENT_44_4|52=20150521-03:05:34.494|56=FIXIN02|1=0001210287|11=1432177534751|15=VND|21=1|22=2|38=10000|40=2|44=20900|48=B3D53Y7|54=1|55=SSI|59=0|60=20150521-03:05:34.494|207=VN|10=201|
8=FIX.4.4|9=454|35=8|34=24|49=FIXIN02|52=20150521-03:05:34.534|56=TEST_CLIENT_44_4|1=0001210287|6=0|11=1432177534751|14=0|17=052115-FIXIN02-63-0-TEST_CLIENT_44_4-1432177534751|31=0|32=0|37=052115-FIXIN02-63-0-TEST_CLIENT_44_4-1432177534751|38=10000|39=8|40=2|44=20900|54=1|55=SSI|58=SEC 0 : Broker Exchange Option --- Additional Info: Price 20900 is lower than floor price 25100 of symbol SSI|59=0|60=20150521-03:05:34.534|103=0|150=8|151=0|336=1|376=0001210287,10000,0|10=221|
8=FIX.4.4|9=196|35=D|34=25|49=TEST_CLIENT_44_4|52=20150521-03:05:34.594|56=FIXIN02|1=0001210287|11=1432177535175|15=VND|21=1|22=2|38=1000|40=2|44=13500|48=B3D53Y7|54=1|55=HUT|59=0|60=20150521-03:05:34.594|207=VN|10=156|
8=FIX.4.4|9=427|35=8|34=25|49=FIXIN02|52=20150521-03:05:34.734|56=TEST_CLIENT_44_4|1=0001210287|6=0|11=1432177535175|14=0|17=052115100534-HNX_GATEWAY_MATCHING-19-ORS_1_ACTIVE_UAT-0|31=0|32=0|37=052115-FIXIN02-64-0-TEST_CLIENT_44_4-1432177535175|38=1000|39=8|40=2|44=13500|54=1|55=HUT|58=SEC 0 : Unknown System Error --- Additional Info: Exchange 02 error code -17002|59=0|60=20150521-03:05:34.734|103=0|150=8|151=0|336=2|376=0001210287,1000,9|10=081|
8=FIX.4.4|9=196|35=D|34=26|49=TEST_CLIENT_44_4|52=20150521-03:05:34.794|56=FIXIN02|1=0001210287|11=1432177535524|15=VND|21=1|22=2|38=1600|40=2|44=10100|48=B3D53Y7|54=1|55=VAT|59=0|60=20150521-03:05:34.794|207=VN|10=152|
8=FIX.4.4|9=454|35=8|34=26|49=FIXIN02|52=20150521-03:05:34.836|56=TEST_CLIENT_44_4|1=0001210287|6=0|11=1432177535524|14=0|17=052115-FIXIN02-65-0-TEST_CLIENT_44_4-1432177535524|31=0|32=0|37=052115-FIXIN02-65-0-TEST_CLIENT_44_4-1432177535524|38=1600|39=8|40=2|44=10100|54=1|55=VAT|58=SEC 0 : Broker Exchange Option --- Additional Info: Price 10100 is higher than ceiling price 8800 of symbol VAT|59=0|60=20150521-03:05:34.836|103=0|150=8|151=0|336=2|376=0001210287,1600,0|10=092|
8=FIX.4.4|9=195|35=D|34=27|49=TEST_CLIENT_44_4|52=20150521-03:05:34.894|56=FIXIN02|1=0001210287|11=1432177535761|15=VND|21=1|22=2|38=200|40=2|44=17900|48=B3D53Y7|54=2|55=CTG|59=0|60=20150521-03:05:34.894|207=VN|10=107|
8=FIX.4.4|9=453|35=8|34=27|49=FIXIN02|52=20150521-03:05:34.934|56=TEST_CLIENT_44_4|1=0001210287|6=0|11=1432177535761|14=0|17=052115-FIXIN02-66-0-TEST_CLIENT_44_4-1432177535761|31=0|32=0|37=052115-FIXIN02-66-0-TEST_CLIENT_44_4-1432177535761|38=200|39=8|40=2|44=17900|54=2|55=CTG|58=SEC 0 : Broker Exchange Option --- Additional Info: Price 17900 is higher than ceiling price 16400 of symbol CTG|59=0|60=20150521-03:05:34.934|103=0|150=8|151=0|336=1|376=0001210287,200,0|10=042|
8=FIX.4.4|9=195|35=D|34=28|49=TEST_CLIENT_44_4|52=20150521-03:05:34.994|56=FIXIN02|1=0001210287|11=1432177535317|15=VND|21=1|22=2|38=2000|40=2|44=8500|48=B3D53Y7|54=1|55=HAI|59=0|60=20150521-03:05:34.994|207=VN|10=090|
8=FIX.4.4|9=450|35=8|34=28|49=FIXIN02|52=20150521-03:05:35.034|56=TEST_CLIENT_44_4|1=0001210287|6=0|11=1432177535317|14=0|17=052115-FIXIN02-67-0-TEST_CLIENT_44_4-1432177535317|31=0|32=0|37=052115-FIXIN02-67-0-TEST_CLIENT_44_4-1432177535317|38=2000|39=8|40=2|44=8500|54=1|55=HAI|58=SEC 0 : Broker Exchange Option --- Additional Info: Price 8500 is lower than floor price 12600 of symbol HAI|59=0|60=20150521-03:05:35.034|103=0|150=8|151=0|336=1|376=0001210287,2000,0|10=231|
8=FIX.4.4|9=196|35=D|34=29|49=TEST_CLIENT_44_4|52=20150521-03:05:35.094|56=FIXIN02|1=0001210287|11=1432177535745|15=VND|21=1|22=2|38=17000|40=2|44=2900|48=B3D53Y7|54=1|55=PXL|59=0|60=20150521-03:05:35.094|207=VN|10=167|
8=FIX.4.4|9=451|35=8|34=29|49=FIXIN02|52=20150521-03:05:35.133|56=TEST_CLIENT_44_4|1=0001210287|6=0|11=1432177535745|14=0|17=052115-FIXIN02-68-0-TEST_CLIENT_44_4-1432177535745|31=0|32=0|37=052115-FIXIN02-68-0-TEST_CLIENT_44_4-1432177535745|38=17000|39=8|40=2|44=2900|54=1|55=PXL|58=SEC 0 : Broker Exchange Option --- Additional Info: Price 2900 is lower than floor price 3800 of symbol PXL|59=0|60=20150521-03:05:35.133|103=0|150=8|151=0|336=1|376=0001210287,17000,0|10=120|
8=FIX.4.4|9=195|35=D|34=30|49=TEST_CLIENT_44_4|52=20150521-03:05:35.194|56=FIXIN02|1=0001210287|11=1432177535553|15=VND|21=1|22=2|38=590|40=2|44=10700|48=B3D53Y7|54=2|55=FLC|59=0|60=20150521-03:05:35.194|207=VN|10=082|
8=FIX.4.4|9=443|35=8|34=30|49=FIXIN02|52=20150521-03:05:35.234|56=TEST_CLIENT_44_4|1=0001210287|6=0|11=1432177535553|14=0|17=052115-FIXIN02-69-0-TEST_CLIENT_44_4-1432177535553|31=0|32=0|37=052115-FIXIN02-69-0-TEST_CLIENT_44_4-1432177535553|38=590|39=8|40=2|44=10700|54=2|55=FLC|58=SEC 3 : Order exceeds limit --- Additional Info: SubAccount 0001210287 has balance 0 . Hold 590 failed|59=0|60=20150521-03:05:35.233|103=3|150=8|151=0|336=1|376=0001210287,590,0|10=146|
8=FIX.4.4|9=196|35=D|34=31|49=TEST_CLIENT_44_4|52=20150521-03:05:35.295|56=FIXIN02|1=0001210287|11=1432177535651|15=VND|21=1|22=2|38=1000|40=2|44=51000|48=B3D53Y7|54=1|55=FPT|59=0|60=20150521-03:05:35.295|207=VN|10=140|
8=FIX.4.4|9=351|35=8|34=31|49=FIXIN02|52=20150521-03:05:35.334|56=TEST_CLIENT_44_4|1=0001210287|6=0|11=1432177535651|14=0|17=052115-FIXIN02-70-0-TEST_CLIENT_44_4-1432177535651-PN|19=50000002|31=0|32=0|37=052115-FIXIN02-70-0-TEST_CLIENT_44_4-1432177535651|38=1000|39=A|40=2|44=51000|54=1|55=FPT|59=0|60=20150521-03:05:35.334|150=A|151=1000|336=1|376=0001210287,1000,9|10=079|
8=FIX.4.4|9=195|35=D|34=32|49=TEST_CLIENT_44_4|52=20150521-03:05:35.395|56=FIXIN02|1=0001210287|11=1432177535412|15=VND|21=1|22=2|38=340|40=2|44=41000|48=B3D53Y7|54=1|55=TAC|59=0|60=20150521-03:05:35.395|207=VN|10=076|
8=FIX.4.4|9=450|35=8|34=32|49=FIXIN02|52=20150521-03:05:35.436|56=TEST_CLIENT_44_4|1=0001210287|6=0|11=1432177535412|14=0|17=052115-FIXIN02-71-0-TEST_CLIENT_44_4-1432177535412|31=0|32=0|37=052115-FIXIN02-71-0-TEST_CLIENT_44_4-1432177535412|38=340|39=8|40=2|44=41000|54=1|55=TAC|58=SEC 0 : Broker Exchange Option --- Additional Info: Price 41000 is lower than floor price 41800 of symbol TAC|59=0|60=20150521-03:05:35.436|103=0|150=8|151=0|336=1|376=0001210287,340,0|10=226|
8=FIX.4.4|9=196|35=D|34=33|49=TEST_CLIENT_44_4|52=20150521-03:05:35.495|56=FIXIN02|1=0001210287|11=1432177536105|15=VND|21=1|22=2|38=1000|40=2|44=12800|48=B3D53Y7|54=1|55=NDN|59=0|60=20150521-03:05:35.495|207=VN|10=136|
8=FIX.4.4|9=452|35=8|34=33|49=FIXIN02|52=20150521-03:05:35.535|56=TEST_CLIENT_44_4|1=0001210287|6=0|11=1432177536105|14=0|17=052115-FIXIN02-72-0-TEST_CLIENT_44_4-1432177536105|31=0|32=0|37=052115-FIXIN02-72-0-TEST_CLIENT_44_4-1432177536105|38=1000|39=8|40=2|44=12800|54=1|55=NDN|58=SEC 0 : Broker Exchange Option --- Additional Info: Price 12800 is lower than floor price 15200 of symbol NDN|59=0|60=20150521-03:05:35.535|103=0|150=8|151=0|336=2|376=0001210287,1000,0|10=083|
8=FIX.4.4|9=195|35=D|34=34|49=TEST_CLIENT_44_4|52=20150521-03:05:35.595|56=FIXIN02|1=0001210287|11=1432177535874|15=VND|21=1|22=2|38=5000|40=2|44=7800|48=B3D53Y7|54=2|55=IDI|59=0|60=20150521-03:05:35.595|207=VN|10=101|
8=FIX.4.4|9=450|35=8|34=34|49=FIXIN02|52=20150521-03:05:35.635|56=TEST_CLIENT_44_4|1=0001210287|6=0|11=1432177535874|14=0|17=052115-FIXIN02-73-0-TEST_CLIENT_44_4-1432177535874|31=0|32=0|37=052115-FIXIN02-73-0-TEST_CLIENT_44_4-1432177535874|38=5000|39=8|40=2|44=7800|54=2|55=IDI|58=SEC 0 : Broker Exchange Option --- Additional Info: Price 7800 is lower than floor price 10700 of symbol IDI|59=0|60=20150521-03:05:35.635|103=0|150=8|151=0|336=1|376=0001210287,5000,0|10=022|
8=FIX.4.4|9=196|35=D|34=35|49=TEST_CLIENT_44_4|52=20150521-03:05:35.696|56=FIXIN02|1=0001210287|11=1432177536305|15=VND|21=1|22=2|38=1000|40=2|44=14000|48=B3D53Y7|54=1|55=FIT|59=0|60=20150521-03:05:35.696|207=VN|10=143|
8=FIX.4.4|9=452|35=8|34=35|49=FIXIN02|52=20150521-03:05:35.735|56=TEST_CLIENT_44_4|1=0001210287|6=0|11=1432177536305|14=0|17=052115-FIXIN02-74-0-TEST_CLIENT_44_4-1432177536305|31=0|32=0|37=052115-FIXIN02-74-0-TEST_CLIENT_44_4-1432177536305|38=1000|39=8|40=2|44=14000|54=1|55=FIT|58=SEC 0 : Broker Exchange Option --- Additional Info: Price 14000 is lower than floor price 15900 of symbol FIT|59=0|60=20150521-03:05:35.735|103=0|150=8|151=0|336=2|376=0001210287,1000,0|10=100|
8=FIX.4.4|9=196|35=D|34=36|49=TEST_CLIENT_44_4|52=20150521-03:05:35.800|56=FIXIN02|1=0001210287|11=1432177535988|15=VND|21=1|22=2|38=10000|40=2|44=8700|48=B3D53Y7|54=1|55=BSI|59=0|60=20150521-03:05:35.800|207=VN|10=139|
8=FIX.4.4|9=452|35=8|34=36|49=FIXIN02|52=20150521-03:05:35.839|56=TEST_CLIENT_44_4|1=0001210287|6=0|11=1432177535988|14=0|17=052115-FIXIN02-75-0-TEST_CLIENT_44_4-1432177535988|31=0|32=0|37=052115-FIXIN02-75-0-TEST_CLIENT_44_4-1432177535988|38=10000|39=8|40=2|44=8700|54=1|55=BSI|58=SEC 0 : Broker Exchange Option --- Additional Info: Price 8700 is lower than floor price 10200 of symbol BSI|59=0|60=20150521-03:05:35.839|103=0|150=8|151=0|336=1|376=0001210287,10000,0|10=158|
8=FIX.4.4|9=196|35=D|34=37|49=TEST_CLIENT_44_4|52=20150521-03:05:35.900|56=FIXIN02|1=0001210287|11=1432177536449|15=VND|21=1|22=2|38=6000|40=2|44=20200|48=B3D53Y7|54=1|55=SVC|59=0|60=20150521-03:05:35.900|207=VN|10=143|
8=FIX.4.4|9=455|35=8|34=37|49=FIXIN02|52=20150521-03:05:35.939|56=TEST_CLIENT_44_4|1=0001210287|6=0|11=1432177536449|14=0|17=052115-FIXIN02-76-0-TEST_CLIENT_44_4-1432177536449|31=0|32=0|37=052115-FIXIN02-76-0-TEST_CLIENT_44_4-1432177536449|38=6000|39=8|40=2|44=20200|54=1|55=SVC|58=SEC 0 : Broker Exchange Option --- Additional Info: Price 20200 is higher than ceiling price 17700 of symbol SVC|59=0|60=20150521-03:05:35.939|103=0|150=8|151=0|336=1|376=0001210287,6000,0|10=180|
8=FIX.4.4|9=196|35=D|34=38|49=TEST_CLIENT_44_4|52=20150521-03:05:36.000|56=FIXIN02|1=0001210287|11=1432177536897|15=VND|21=1|22=2|38=1500|40=2|44=40000|48=B3D53Y7|54=1|55=TMT|59=0|60=20150521-03:05:36.000|207=VN|10=144|
8=FIX.4.4|9=455|35=8|34=38|49=FIXIN02|52=20150521-03:05:36.039|56=TEST_CLIENT_44_4|1=0001210287|6=0|11=1432177536897|14=0|17=052115-FIXIN02-77-0-TEST_CLIENT_44_4-1432177536897|31=0|32=0|37=052115-FIXIN02-77-0-TEST_CLIENT_44_4-1432177536897|38=1500|39=8|40=2|44=40000|54=1|55=TMT|58=SEC 0 : Broker Exchange Option --- Additional Info: Price 40000 is higher than ceiling price 18800 of symbol TMT|59=0|60=20150521-03:05:36.039|103=0|150=8|151=0|336=1|376=0001210287,1500,0|10=208|
8=FIX.4.4|9=194|35=D|34=39|49=TEST_CLIENT_44_4|52=20150521-03:05:36.100|56=FIXIN02|1=0001210287|11=1432177536457|15=VND|21=1|22=2|38=10|40=2|44=28900|48=B3D53Y7|54=1|55=HCM|59=0|60=20150521-03:05:36.100|207=VN|10=022|
8=FIX.4.4|9=448|35=8|34=39|49=FIXIN02|52=20150521-03:05:36.139|56=TEST_CLIENT_44_4|1=0001210287|6=0|11=1432177536457|14=0|17=052115-FIXIN02-78-0-TEST_CLIENT_44_4-1432177536457|31=0|32=0|37=052115-FIXIN02-78-0-TEST_CLIENT_44_4-1432177536457|38=10|39=8|40=2|44=28900|54=1|55=HCM|58=SEC 0 : Broker Exchange Option --- Additional Info: Price 28900 is lower than floor price 30500 of symbol HCM|59=0|60=20150521-03:05:36.139|103=0|150=8|151=0|336=1|376=0001210287,10,0|10=201|
8=FIX.4.4|9=197|35=D|34=40|49=TEST_CLIENT_44_4|52=20150521-03:05:36.200|56=FIXIN02|1=0001210287|11=1432177537153|15=VND|21=1|22=2|38=19990|40=2|44=28900|48=B3D53Y7|54=1|55=HCM|59=0|60=20150521-03:05:36.200|207=VN|10=184|
8=FIX.4.4|9=454|35=8|34=40|49=FIXIN02|52=20150521-03:05:36.239|56=TEST_CLIENT_44_4|1=0001210287|6=0|11=1432177537153|14=0|17=052115-FIXIN02-79-0-TEST_CLIENT_44_4-1432177537153|31=0|32=0|37=052115-FIXIN02-79-0-TEST_CLIENT_44_4-1432177537153|38=19990|39=8|40=2|44=28900|54=1|55=HCM|58=SEC 0 : Broker Exchange Option --- Additional Info: Price 28900 is lower than floor price 30500 of symbol HCM|59=0|60=20150521-03:05:36.239|103=0|150=8|151=0|336=1|376=0001210287,19990,0|10=006|
8=FIX.4.4|9=196|35=D|34=41|49=TEST_CLIENT_44_4|52=20150521-03:05:36.301|56=FIXIN02|1=0001210287|11=1432177537296|15=VND|21=1|22=2|38=15000|40=2|44=3800|48=B3D53Y7|54=1|55=PVX|59=0|60=20150521-03:05:36.301|207=VN|10=156|
8=FIX.4.4|9=452|35=8|34=41|49=FIXIN02|52=20150521-03:05:36.340|56=TEST_CLIENT_44_4|1=0001210287|6=0|11=1432177537296|14=0|17=052115-FIXIN02-80-0-TEST_CLIENT_44_4-1432177537296|31=0|32=0|37=052115-FIXIN02-80-0-TEST_CLIENT_44_4-1432177537296|38=15000|39=8|40=2|44=3800|54=1|55=PVX|58=SEC 0 : Broker Exchange Option --- Additional Info: Price 3800 is lower than floor price 10000 of symbol PVX|59=0|60=20150521-03:05:36.340|103=0|150=8|151=0|336=2|376=0001210287,15000,0|10=169|
8=FIX.4.4|9=197|35=D|34=42|49=TEST_CLIENT_44_4|52=20150521-03:05:36.401|56=FIXIN02|1=0001210287|11=1432177536946|15=VND|21=1|22=2|38=15000|40=2|44=22600|48=B3D53Y7|54=1|55=HBC|59=0|60=20150521-03:05:36.401|207=VN|10=159|
8=FIX.4.4|9=457|35=8|34=42|49=FIXIN02|52=20150521-03:05:36.440|56=TEST_CLIENT_44_4|1=0001210287|6=0|11=1432177536946|14=0|17=052115-FIXIN02-81-0-TEST_CLIENT_44_4-1432177536946|31=0|32=0|37=052115-FIXIN02-81-0-TEST_CLIENT_44_4-1432177536946|38=15000|39=8|40=2|44=22600|54=1|55=HBC|58=SEC 0 : Broker Exchange Option --- Additional Info: Price 22600 is higher than ceiling price 16200 of symbol HBC|59=0|60=20150521-03:05:36.440|103=0|150=8|151=0|336=1|376=0001210287,15000,0|10=192|
8=FIX.4.4|9=196|35=D|34=43|49=TEST_CLIENT_44_4|52=20150521-03:05:36.501|56=FIXIN02|1=0001210287|11=1432177537450|15=VND|21=1|22=2|38=2000|40=2|44=20500|48=B3D53Y7|54=1|55=SVC|59=0|60=20150521-03:05:36.501|207=VN|10=128|
8=FIX.4.4|9=455|35=8|34=43|49=FIXIN02|52=20150521-03:05:36.540|56=TEST_CLIENT_44_4|1=0001210287|6=0|11=1432177537450|14=0|17=052115-FIXIN02-82-0-TEST_CLIENT_44_4-1432177537450|31=0|32=0|37=052115-FIXIN02-82-0-TEST_CLIENT_44_4-1432177537450|38=2000|39=8|40=2|44=20500|54=1|55=SVC|58=SEC 0 : Broker Exchange Option --- Additional Info: Price 20500 is higher than ceiling price 17700 of symbol SVC|59=0|60=20150521-03:05:36.540|103=0|150=8|151=0|336=1|376=0001210287,2000,0|10=126|
8=FIX.4.4|9=197|35=D|34=44|49=TEST_CLIENT_44_4|52=20150521-03:05:36.601|56=FIXIN02|1=0001210287|11=1432177537451|15=VND|21=1|22=2|38=19990|40=2|44=28900|48=B3D53Y7|54=1|55=HCM|59=0|60=20150521-03:05:36.601|207=VN|10=199|
8=FIX.4.4|9=454|35=8|34=44|49=FIXIN02|52=20150521-03:05:36.640|56=TEST_CLIENT_44_4|1=0001210287|6=0|11=1432177537451|14=0|17=052115-FIXIN02-83-0-TEST_CLIENT_44_4-1432177537451|31=0|32=0|37=052115-FIXIN02-83-0-TEST_CLIENT_44_4-1432177537451|38=19990|39=8|40=2|44=28900|54=1|55=HCM|58=SEC 0 : Broker Exchange Option --- Additional Info: Price 28900 is lower than floor price 30500 of symbol HCM|59=0|60=20150521-03:05:36.640|103=0|150=8|151=0|336=1|376=0001210287,19990,0|10=251|
8=FIX.4.4|9=194|35=D|34=45|49=TEST_CLIENT_44_4|52=20150521-03:05:36.701|56=FIXIN02|1=0001210287|11=1432177537060|15=VND|21=1|22=2|38=10|40=2|44=28900|48=B3D53Y7|54=1|55=HCM|59=0|60=20150521-03:05:36.701|207=VN|10=024|
8=FIX.4.4|9=448|35=8|34=45|49=FIXIN02|52=20150521-03:05:36.741|56=TEST_CLIENT_44_4|1=0001210287|6=0|11=1432177537060|14=0|17=052115-FIXIN02-84-0-TEST_CLIENT_44_4-1432177537060|31=0|32=0|37=052115-FIXIN02-84-0-TEST_CLIENT_44_4-1432177537060|38=10|39=8|40=2|44=28900|54=1|55=HCM|58=SEC 0 : Broker Exchange Option --- Additional Info: Price 28900 is lower than floor price 30500 of symbol HCM|59=0|60=20150521-03:05:36.741|103=0|150=8|151=0|336=1|376=0001210287,10,0|10=163|
8=FIX.4.4|9=195|35=D|34=46|49=TEST_CLIENT_44_4|52=20150521-03:05:36.801|56=FIXIN02|1=0001210287|11=1432177537518|15=VND|21=1|22=2|38=2150|40=2|44=8700|48=B3D53Y7|54=1|55=HAI|59=0|60=20150521-03:05:36.801|207=VN|10=081|
8=FIX.4.4|9=450|35=8|34=46|49=FIXIN02|52=20150521-03:05:36.840|56=TEST_CLIENT_44_4|1=0001210287|6=0|11=1432177537518|14=0|17=052115-FIXIN02-85-0-TEST_CLIENT_44_4-1432177537518|31=0|32=0|37=052115-FIXIN02-85-0-TEST_CLIENT_44_4-1432177537518|38=2150|39=8|40=2|44=8700|54=1|55=HAI|58=SEC 0 : Broker Exchange Option --- Additional Info: Price 8700 is lower than floor price 12600 of symbol HAI|59=0|60=20150521-03:05:36.840|103=0|150=8|151=0|336=1|376=0001210287,2150,0|10=018|
8=FIX.4.4|9=194|35=D|34=47|49=TEST_CLIENT_44_4|52=20150521-03:05:36.901|56=FIXIN02|1=0001210287|11=1432177537843|15=VND|21=1|22=2|38=500|40=2|44=5600|48=B3D53Y7|54=2|55=AGR|59=0|60=20150521-03:05:36.901|207=VN|10=038|
8=FIX.4.4|9=447|35=8|34=47|49=FIXIN02|52=20150521-03:05:36.940|56=TEST_CLIENT_44_4|1=0001210287|6=0|11=1432177537843|14=0|17=052115-FIXIN02-86-0-TEST_CLIENT_44_4-1432177537843|31=0|32=0|37=052115-FIXIN02-86-0-TEST_CLIENT_44_4-1432177537843|38=500|39=8|40=2|44=5600|54=2|55=AGR|58=SEC 0 : Broker Exchange Option --- Additional Info: Price 5600 is lower than floor price 6200 of symbol AGR|59=0|60=20150521-03:05:36.940|103=0|150=8|151=0|336=1|376=0001210287,500,0|10=146|
8=FIX.4.4|9=196|35=D|34=48|49=TEST_CLIENT_44_4|52=20150521-03:05:37.001|56=FIXIN02|1=0001210287|11=1432177537543|15=VND|21=1|22=2|38=5180|40=2|44=12600|48=B3D53Y7|54=2|55=MHC|59=0|60=20150521-03:05:37.001|207=VN|10=123|
8=FIX.4.4|9=446|35=8|34=48|49=FIXIN02|52=20150521-03:05:37.040|56=TEST_CLIENT_44_4|1=0001210287|6=0|11=1432177537543|14=0|17=052115-FIXIN02-87-0-TEST_CLIENT_44_4-1432177537543|31=0|32=0|37=052115-FIXIN02-87-0-TEST_CLIENT_44_4-1432177537543|38=5180|39=8|40=2|44=12600|54=2|55=MHC|58=SEC 3 : Order exceeds limit --- Additional Info: SubAccount 0001210287 has balance 0 . Hold 5180 failed|59=0|60=20150521-03:05:37.040|103=3|150=8|151=0|336=1|376=0001210287,5180,0|10=048|
8=FIX.4.4|9=195|35=D|34=49|49=TEST_CLIENT_44_4|52=20150521-03:05:37.101|56=FIXIN02|1=0001210287|11=1432177537594|15=VND|21=1|22=2|38=700|40=2|44=10100|48=B3D53Y7|54=1|55=FLC|59=0|60=20150521-03:05:37.101|207=VN|10=065|
8=FIX.4.4|9=348|35=8|34=49|49=FIXIN02|52=20150521-03:05:37.139|56=TEST_CLIENT_44_4|1=0001210287|6=0|11=1432177537594|14=0|17=052115-FIXIN02-88-0-TEST_CLIENT_44_4-1432177537594-PN|19=50000003|31=0|32=0|37=052115-FIXIN02-88-0-TEST_CLIENT_44_4-1432177537594|38=700|39=A|40=2|44=10100|54=1|55=FLC|59=0|60=20150521-03:05:37.139|150=A|151=700|336=1|376=0001210287,700,9|10=252|
8=FIX.4.4|9=196|35=D|34=50|49=TEST_CLIENT_44_4|52=20150521-03:05:37.201|56=FIXIN02|1=0001210287|11=1432177537934|15=VND|21=1|22=2|38=5000|40=2|44=24300|48=B3D53Y7|54=1|55=CVT|59=0|60=20150521-03:05:37.201|207=VN|10=135|
8=FIX.4.4|9=427|35=8|34=50|49=FIXIN02|52=20150521-03:05:37.344|56=TEST_CLIENT_44_4|1=0001210287|6=0|11=1432177537934|14=0|17=052115100537-HNX_GATEWAY_MATCHING-20-ORS_1_ACTIVE_UAT-0|31=0|32=0|37=052115-FIXIN02-89-0-TEST_CLIENT_44_4-1432177537934|38=5000|39=8|40=2|44=24300|54=1|55=CVT|58=SEC 0 : Unknown System Error --- Additional Info: Exchange 02 error code -17003|59=0|60=20150521-03:05:37.344|103=0|150=8|151=0|336=2|376=0001210287,5000,9|10=096|
8=FIX.4.4|9=196|35=D|34=51|49=TEST_CLIENT_44_4|52=20150521-03:05:37.402|56=FIXIN02|1=0001210287|11=1432177538262|15=VND|21=1|22=2|38=6560|40=2|44=15300|48=B3D53Y7|54=2|55=DXG|59=0|60=20150521-03:05:37.402|207=VN|10=140|
8=FIX.4.4|9=446|35=8|34=51|49=FIXIN02|52=20150521-03:05:37.442|56=TEST_CLIENT_44_4|1=0001210287|6=0|11=1432177538262|14=0|17=052115-FIXIN02-90-0-TEST_CLIENT_44_4-1432177538262|31=0|32=0|37=052115-FIXIN02-90-0-TEST_CLIENT_44_4-1432177538262|38=6560|39=8|40=2|44=15300|54=2|55=DXG|58=SEC 3 : Order exceeds limit --- Additional Info: SubAccount 0001210287 has balance 0 . Hold 6560 failed|59=0|60=20150521-03:05:37.442|103=3|150=8|151=0|336=1|376=0001210287,6560,0|10=059|
8=FIX.4.4|9=194|35=D|34=52|49=TEST_CLIENT_44_4|52=20150521-03:05:37.502|56=FIXIN02|1=0001210287|11=1432177537721|15=VND|21=1|22=2|38=500|40=2|44=9100|48=B3D53Y7|54=1|55=VHG|59=0|60=20150521-03:05:37.502|207=VN|10=034|
8=FIX.4.4|9=448|35=8|34=52|49=FIXIN02|52=20150521-03:05:37.541|56=TEST_CLIENT_44_4|1=0001210287|6=0|11=1432177537721|14=0|17=052115-FIXIN02-91-0-TEST_CLIENT_44_4-1432177537721|31=0|32=0|37=052115-FIXIN02-91-0-TEST_CLIENT_44_4-1432177537721|38=500|39=8|40=2|44=9100|54=1|55=VHG|58=SEC 0 : Broker Exchange Option --- Additional Info: Price 9100 is lower than floor price 12100 of symbol VHG|59=0|60=20150521-03:05:37.541|103=0|150=8|151=0|336=1|376=0001210287,500,0|10=179|
8=FIX.4.4|9=194|35=D|34=53|49=TEST_CLIENT_44_4|52=20150521-03:05:37.602|56=FIXIN02|1=0001210287|11=1432177538082|15=VND|21=1|22=2|38=100|40=2|44=9600|48=B3D53Y7|54=1|55=TIG|59=0|60=20150521-03:05:37.602|207=VN|10=038|
8=FIX.4.4|9=84|35=A|34=1|49=TEST_CLIENT_44_4|52=20150521-03:12:17.797|56=FIXIN02|98=0|108=30|141=Y|10=204|
8=FIX.4.4|9=84|35=A|34=1|49=FIXIN02|52=20150521-03:12:18.276|56=TEST_CLIENT_44_4|98=0|108=30|141=Y|10=197|
8=FIX.4.4|9=84|35=A|34=1|49=TEST_CLIENT_44_4|52=20150521-03:12:45.268|56=FIXIN02|98=0|108=30|141=Y|10=198|
8=FIX.4.4|9=84|35=A|34=1|49=FIXIN02|52=20150521-03:12:45.329|56=TEST_CLIENT_44_4|98=0|108=30|141=Y|10=196|
8=FIX.4.4|9=66|35=0|34=2|49=FIXIN02|52=20150521-03:13:15.581|56=TEST_CLIENT_44_4|10=108|
8=FIX.4.4|9=66|35=0|34=2|49=TEST_CLIENT_44_4|52=20150521-03:13:15.550|56=FIXIN02|10=104|
8=FIX.4.4|9=66|35=0|34=3|49=FIXIN02|52=20150521-03:13:45.581|56=TEST_CLIENT_44_4|10=112|
8=FIX.4.4|9=66|35=0|34=3|49=TEST_CLIENT_44_4|52=20150521-03:13:46.239|56=FIXIN02|10=113|
8=FIX.4.4|9=66|35=0|34=4|49=FIXIN02|52=20150521-03:14:15.581|56=TEST_CLIENT_44_4|10=111|
8=FIX.4.4|9=66|35=0|34=4|49=TEST_CLIENT_44_4|52=20150521-03:14:16.239|56=FIXIN02|10=112|
8=FIX.4.4|9=66|35=0|34=5|49=FIXIN02|52=20150521-03:14:45.581|56=TEST_CLIENT_44_4|10=115|
8=FIX.4.4|9=66|35=0|34=5|49=TEST_CLIENT_44_4|52=20150521-03:14:46.239|56=FIXIN02|10=116|
8=FIX.4.4|9=66|35=0|34=6|49=FIXIN02|52=20150521-03:15:15.581|56=TEST_CLIENT_44_4|10=114|
8=FIX.4.4|9=66|35=0|34=6|49=TEST_CLIENT_44_4|52=20150521-03:15:16.241|56=FIXIN02|10=108|
8=FIX.4.4|9=66|35=0|34=7|49=FIXIN02|52=20150521-03:15:45.581|56=TEST_CLIENT_44_4|10=118|
8=FIX.4.4|9=66|35=0|34=7|49=TEST_CLIENT_44_4|52=20150521-03:15:47.240|56=FIXIN02|10=112|
8=FIX.4.4|9=66|35=0|34=8|49=FIXIN02|52=20150521-03:16:15.581|56=TEST_CLIENT_44_4|10=117|
8=FIX.4.4|9=66|35=0|34=8|49=TEST_CLIENT_44_4|52=20150521-03:16:18.239|56=FIXIN02|10=120|
8=FIX.4.4|9=66|35=0|34=9|49=FIXIN02|52=20150521-03:16:45.581|56=TEST_CLIENT_44_4|10=121|
8=FIX.4.4|9=66|35=0|34=9|49=TEST_CLIENT_44_4|52=20150521-03:16:49.238|56=FIXIN02|10=124|
8=FIX.4.4|9=67|35=0|34=10|49=FIXIN02|52=20150521-03:17:16.581|56=TEST_CLIENT_44_4|10=161|
8=FIX.4.4|9=67|35=0|34=10|49=TEST_CLIENT_44_4|52=20150521-03:17:19.239|56=FIXIN02|10=164|
8=FIX.4.4|9=67|35=0|34=11|49=FIXIN02|52=20150521-03:17:46.581|56=TEST_CLIENT_44_4|10=165|
8=FIX.4.4|9=67|35=0|34=11|49=TEST_CLIENT_44_4|52=20150521-03:17:50.238|56=FIXIN02|10=159|
8=FIX.4.4|9=67|35=0|34=12|49=FIXIN02|52=20150521-03:18:16.581|56=TEST_CLIENT_44_4|10=164|
8=FIX.4.4|9=67|35=0|34=12|49=TEST_CLIENT_44_4|52=20150521-03:18:21.236|56=FIXIN02|10=157|
8=FIX.4.4|9=67|35=0|34=13|49=FIXIN02|52=20150521-03:18:46.581|56=TEST_CLIENT_44_4|10=168|
8=FIX.4.4|9=67|35=0|34=13|49=TEST_CLIENT_44_4|52=20150521-03:18:52.214|56=FIXIN02|10=158|
8=FIX.4.4|9=67|35=0|34=14|49=FIXIN02|52=20150521-03:19:16.581|56=TEST_CLIENT_44_4|10=167|
8=FIX.4.4|9=67|35=0|34=14|49=TEST_CLIENT_44_4|52=20150521-03:19:22.219|56=FIXIN02|10=162|
8=FIX.4.4|9=67|35=0|34=15|49=FIXIN02|52=20150521-03:19:46.581|56=TEST_CLIENT_44_4|10=171|
8=FIX.4.4|9=67|35=0|34=15|49=TEST_CLIENT_44_4|52=20150521-03:19:52.233|56=FIXIN02|10=162|
8=FIX.4.4|9=67|35=0|34=16|49=FIXIN02|52=20150521-03:20:16.581|56=TEST_CLIENT_44_4|10=161|
8=FIX.4.4|9=67|35=0|34=16|49=TEST_CLIENT_44_4|52=20150521-03:20:23.212|56=FIXIN02|10=150|
8=FIX.4.4|9=67|35=0|34=17|49=FIXIN02|52=20150521-03:20:46.581|56=TEST_CLIENT_44_4|10=165|
8=FIX.4.4|9=84|35=A|34=1|49=TEST_CLIENT_44_4|52=20150521-03:21:04.969|56=FIXIN02|98=0|108=30|141=Y|10=201|
8=FIX.4.4|9=84|35=A|34=1|49=FIXIN02|52=20150521-03:21:05.019|56=TEST_CLIENT_44_4|98=0|108=30|141=Y|10=188|
8=FIX.4.4|9=84|35=A|34=1|49=TEST_CLIENT_44_4|52=20150521-03:21:34.010|56=FIXIN02|98=0|108=30|141=Y|10=181|
8=FIX.4.4|9=84|35=A|34=1|49=FIXIN02|52=20150521-03:21:34.054|56=TEST_CLIENT_44_4|98=0|108=30|141=Y|10=189|
8=FIX.4.4|9=66|35=0|34=2|49=FIXIN02|52=20150521-03:22:04.581|56=TEST_CLIENT_44_4|10=106|
8=FIX.4.4|9=66|35=0|34=2|49=TEST_CLIENT_44_4|52=20150521-03:22:04.557|56=FIXIN02|10=109|
8=FIX.4.4|9=66|35=0|34=3|49=TEST_CLIENT_44_4|52=20150521-03:22:35.007|56=FIXIN02|10=104|
8=FIX.4.4|9=66|35=0|34=3|49=FIXIN02|52=20150521-03:22:35.037|56=TEST_CLIENT_44_4|10=107|
8=FIX.4.4|9=66|35=0|34=4|49=FIXIN02|52=20150521-03:23:05.581|56=TEST_CLIENT_44_4|10=110|
8=FIX.4.4|9=66|35=0|34=4|49=TEST_CLIENT_44_4|52=20150521-03:23:05.546|56=FIXIN02|10=111|
8=FIX.4.4|9=66|35=0|34=5|49=FIXIN02|52=20150521-03:23:35.581|56=TEST_CLIENT_44_4|10=114|
8=FIX.4.4|9=66|35=0|34=5|49=TEST_CLIENT_44_4|52=20150521-03:23:35.556|56=FIXIN02|10=116|
8=FIX.4.4|9=66|35=0|34=6|49=FIXIN02|52=20150521-03:24:05.581|56=TEST_CLIENT_44_4|10=113|
8=FIX.4.4|9=66|35=0|34=6|49=TEST_CLIENT_44_4|52=20150521-03:24:05.556|56=FIXIN02|10=115|
8=FIX.4.4|9=66|35=0|34=7|49=FIXIN02|52=20150521-03:24:35.581|56=TEST_CLIENT_44_4|10=117|
8=FIX.4.4|9=66|35=0|34=7|49=TEST_CLIENT_44_4|52=20150521-03:24:35.994|56=FIXIN02|10=125|
8=FIX.4.4|9=66|35=0|34=8|49=FIXIN02|52=20150521-03:25:05.581|56=TEST_CLIENT_44_4|10=116|
8=FIX.4.4|9=66|35=0|34=8|49=TEST_CLIENT_44_4|52=20150521-03:25:06.992|56=FIXIN02|10=123|
8=FIX.4.4|9=66|35=0|34=9|49=FIXIN02|52=20150521-03:25:35.581|56=TEST_CLIENT_44_4|10=120|
8=FIX.4.4|9=66|35=0|34=9|49=TEST_CLIENT_44_4|52=20150521-03:25:36.993|56=FIXIN02|10=128|
8=FIX.4.4|9=67|35=0|34=10|49=FIXIN02|52=20150521-03:26:05.581|56=TEST_CLIENT_44_4|10=159|
8=FIX.4.4|9=67|35=0|34=10|49=TEST_CLIENT_44_4|52=20150521-03:26:06.995|56=FIXIN02|10=169|
8=FIX.4.4|9=67|35=0|34=11|49=FIXIN02|52=20150521-03:26:35.581|56=TEST_CLIENT_44_4|10=163|
8=FIX.4.4|9=67|35=0|34=11|49=TEST_CLIENT_44_4|52=20150521-03:26:36.997|56=FIXIN02|10=175|
8=FIX.4.4|9=67|35=0|34=12|49=FIXIN02|52=20150521-03:27:05.581|56=TEST_CLIENT_44_4|10=162|
8=FIX.4.4|9=67|35=0|34=12|49=TEST_CLIENT_44_4|52=20150521-03:27:07.991|56=FIXIN02|10=169|
8=FIX.4.4|9=67|35=0|34=13|49=FIXIN02|52=20150521-03:27:35.581|56=TEST_CLIENT_44_4|10=166|
8=FIX.4.4|9=67|35=0|34=13|49=TEST_CLIENT_44_4|52=20150521-03:27:37.994|56=FIXIN02|10=176|
8=FIX.4.4|9=67|35=0|34=14|49=FIXIN02|52=20150521-03:28:05.581|56=TEST_CLIENT_44_4|10=165|
8=FIX.4.4|9=67|35=0|34=14|49=TEST_CLIENT_44_4|52=20150521-03:28:07.998|56=FIXIN02|10=179|
8=FIX.4.4|9=67|35=0|34=15|49=FIXIN02|52=20150521-03:28:35.581|56=TEST_CLIENT_44_4|10=169|
8=FIX.4.4|9=67|35=0|34=15|49=TEST_CLIENT_44_4|52=20150521-03:28:38.994|56=FIXIN02|10=180|
8=FIX.4.4|9=67|35=0|34=16|49=FIXIN02|52=20150521-03:29:05.581|56=TEST_CLIENT_44_4|10=168|
8=FIX.4.4|9=67|35=0|34=16|49=TEST_CLIENT_44_4|52=20150521-03:29:09.970|56=FIXIN02|10=174|
8=FIX.4.4|9=67|35=0|34=17|49=FIXIN02|52=20150521-03:29:35.581|56=TEST_CLIENT_44_4|10=172|
8=FIX.4.4|9=67|35=0|34=17|49=TEST_CLIENT_44_4|52=20150521-03:29:39.991|56=FIXIN02|10=181|
8=FIX.4.4|9=67|35=0|34=18|49=FIXIN02|52=20150521-03:30:06.581|56=TEST_CLIENT_44_4|10=163|
8=FIX.4.4|9=67|35=0|34=18|49=TEST_CLIENT_44_4|52=20150521-03:30:09.992|56=FIXIN02|10=172|
8=FIX.4.4|9=67|35=0|34=19|49=FIXIN02|52=20150521-03:30:36.581|56=TEST_CLIENT_44_4|10=167|
8=FIX.4.4|9=67|35=0|34=19|49=TEST_CLIENT_44_4|52=20150521-03:30:40.967|56=FIXIN02|10=170|
8=FIX.4.4|9=67|35=0|34=20|49=FIXIN02|52=20150521-03:31:06.581|56=TEST_CLIENT_44_4|10=157|
8=FIX.4.4|9=67|35=0|34=20|49=TEST_CLIENT_44_4|52=20150521-03:31:10.983|56=FIXIN02|10=158|
8=FIX.4.4|9=67|35=0|34=21|49=FIXIN02|52=20150521-03:31:36.581|56=TEST_CLIENT_44_4|10=161|
8=FIX.4.4|9=67|35=0|34=21|49=TEST_CLIENT_44_4|52=20150521-03:31:40.983|56=FIXIN02|10=162|
8=FIX.4.4|9=67|35=0|34=22|49=FIXIN02|52=20150521-03:32:07.581|56=TEST_CLIENT_44_4|10=161|
8=FIX.4.4|9=67|35=0|34=22|49=TEST_CLIENT_44_4|52=20150521-03:32:11.965|56=FIXIN02|10=162|
8=FIX.4.4|9=67|35=0|34=23|49=FIXIN02|52=20150521-03:32:37.581|56=TEST_CLIENT_44_4|10=165|
8=FIX.4.4|9=67|35=0|34=23|49=TEST_CLIENT_44_4|52=20150521-03:32:41.988|56=FIXIN02|10=171|
8=FIX.4.4|9=67|35=0|34=24|49=FIXIN02|52=20150521-03:33:07.581|56=TEST_CLIENT_44_4|10=164|
8=FIX.4.4|9=67|35=0|34=24|49=TEST_CLIENT_44_4|52=20150521-03:33:12.963|56=FIXIN02|10=164|
8=FIX.4.4|9=67|35=0|34=25|49=FIXIN02|52=20150521-03:33:37.582|56=TEST_CLIENT_44_4|10=169|
8=FIX.4.4|9=67|35=0|34=25|49=TEST_CLIENT_44_4|52=20150521-03:33:42.986|56=FIXIN02|10=173|
8=FIX.4.4|9=67|35=0|34=26|49=FIXIN02|52=20150521-03:34:08.581|56=TEST_CLIENT_44_4|10=168|
8=FIX.4.4|9=67|35=0|34=26|49=TEST_CLIENT_44_4|52=20150521-03:34:13.985|56=FIXIN02|10=172|
8=FIX.4.4|9=67|35=0|34=27|49=FIXIN02|52=20150521-03:34:38.581|56=TEST_CLIENT_44_4|10=172|
8=FIX.4.4|9=67|35=0|34=27|49=TEST_CLIENT_44_4|52=20150521-03:34:44.987|56=FIXIN02|10=179|
8=FIX.4.4|9=67|35=0|34=28|49=FIXIN02|52=20150521-03:35:08.581|56=TEST_CLIENT_44_4|10=171|
8=FIX.4.4|9=67|35=0|34=28|49=TEST_CLIENT_44_4|52=20150521-03:35:14.987|56=FIXIN02|10=178|
8=FIX.4.4|9=67|35=0|34=29|49=FIXIN02|52=20150521-03:35:38.581|56=TEST_CLIENT_44_4|10=175|
8=FIX.4.4|9=67|35=0|34=29|49=TEST_CLIENT_44_4|52=20150521-03:35:44.987|56=FIXIN02|10=182|
8=FIX.4.4|9=67|35=0|34=30|49=FIXIN02|52=20150521-03:36:08.582|56=TEST_CLIENT_44_4|10=166|
8=FIX.4.4|9=67|35=0|34=30|49=TEST_CLIENT_44_4|52=20150521-03:36:15.978|56=FIXIN02|10=173|
8=FIX.4.4|9=67|35=0|34=31|49=FIXIN02|52=20150521-03:36:39.581|56=TEST_CLIENT_44_4|10=170|
8=FIX.4.4|9=67|35=0|34=31|49=TEST_CLIENT_44_4|52=20150521-03:36:45.987|56=FIXIN02|10=177|
8=FIX.4.4|9=67|35=0|34=32|49=FIXIN02|52=20150521-03:37:09.581|56=TEST_CLIENT_44_4|10=169|
8=FIX.4.4|9=67|35=0|34=32|49=TEST_CLIENT_44_4|52=20150521-03:37:16.987|56=FIXIN02|10=177|
8=FIX.4.4|9=67|35=0|34=33|49=FIXIN02|52=20150521-03:37:39.581|56=TEST_CLIENT_44_4|10=173|
8=FIX.4.4|9=67|35=0|34=33|49=TEST_CLIENT_44_4|52=20150521-03:37:47.986|56=FIXIN02|10=181|
8=FIX.4.4|9=67|35=0|34=34|49=FIXIN02|52=20150521-03:38:09.581|56=TEST_CLIENT_44_4|10=172|
8=FIX.4.4|9=84|35=A|34=1|49=TEST_CLIENT_44_4|52=20150521-03:40:56.740|56=FIXIN02|98=0|108=30|141=Y|10=196|
8=FIX.4.4|9=84|35=A|34=1|49=FIXIN02|52=20150521-03:40:56.784|56=TEST_CLIENT_44_4|98=0|108=30|141=Y|10=204|
8=FIX.4.4|9=66|35=0|34=2|49=FIXIN02|52=20150521-03:41:27.581|56=TEST_CLIENT_44_4|10=112|
8=FIX.4.4|9=66|35=0|34=2|49=TEST_CLIENT_44_4|52=20150521-03:41:27.550|56=FIXIN02|10=108|
8=FIX.4.4|9=66|35=0|34=3|49=FIXIN02|52=20150521-03:41:57.581|56=TEST_CLIENT_44_4|10=116|
8=FIX.4.4|9=66|35=0|34=3|49=TEST_CLIENT_44_4|52=20150521-03:41:57.679|56=FIXIN02|10=124|
8=FIX.4.4|9=66|35=0|34=4|49=FIXIN02|52=20150521-03:42:27.581|56=TEST_CLIENT_44_4|10=115|
8=FIX.4.4|9=66|35=0|34=4|49=TEST_CLIENT_44_4|52=20150521-03:42:27.698|56=FIXIN02|10=124|
8=FIX.4.4|9=66|35=0|34=5|49=FIXIN02|52=20150521-03:42:57.581|56=TEST_CLIENT_44_4|10=119|
8=FIX.4.4|9=66|35=0|34=5|49=TEST_CLIENT_44_4|52=20150521-03:42:57.700|56=FIXIN02|10=112|
8=FIX.4.4|9=66|35=0|34=6|49=FIXIN02|52=20150521-03:43:27.581|56=TEST_CLIENT_44_4|10=118|
8=FIX.4.4|9=66|35=0|34=6|49=TEST_CLIENT_44_4|52=20150521-03:43:28.704|56=FIXIN02|10=116|
8=FIX.4.4|9=66|35=0|34=7|49=FIXIN02|52=20150521-03:43:57.581|56=TEST_CLIENT_44_4|10=122|
8=FIX.4.4|9=66|35=0|34=7|49=TEST_CLIENT_44_4|52=20150521-03:43:59.700|56=FIXIN02|10=117|
8=FIX.4.4|9=66|35=0|34=8|49=FIXIN02|52=20150521-03:44:27.581|56=TEST_CLIENT_44_4|10=121|
8=FIX.4.4|9=66|35=0|34=8|49=TEST_CLIENT_44_4|52=20150521-03:44:30.695|56=FIXIN02|10=121|
8=FIX.4.4|9=66|35=0|34=9|49=FIXIN02|52=20150521-03:44:57.581|56=TEST_CLIENT_44_4|10=125|
8=FIX.4.4|9=66|35=0|34=9|49=TEST_CLIENT_44_4|52=20150521-03:45:01.702|56=FIXIN02|10=110|
8=FIX.4.4|9=84|35=A|34=1|49=TEST_CLIENT_44_4|52=20150521-03:55:15.675|56=FIXIN02|98=0|108=30|141=Y|10=204|
8=FIX.4.4|9=84|35=A|34=1|49=FIXIN02|52=20150521-03:55:15.732|56=TEST_CLIENT_44_4|98=0|108=30|141=Y|10=198|
8=FIX.4.4|9=66|35=0|34=2|49=FIXIN02|52=20150521-03:55:46.581|56=TEST_CLIENT_44_4|10=118|
8=FIX.4.4|9=66|35=0|34=2|49=TEST_CLIENT_44_4|52=20150521-03:55:46.570|56=FIXIN02|10=116|
8=FIX.4.4|9=66|35=0|34=3|49=FIXIN02|52=20150521-03:56:16.581|56=TEST_CLIENT_44_4|10=117|
8=FIX.4.4|9=66|35=0|34=3|49=TEST_CLIENT_44_4|52=20150521-03:56:16.646|56=FIXIN02|10=119|
8=FIX.4.4|9=84|35=A|34=1|49=TEST_CLIENT_44_4|52=20150521-04:01:09.913|56=FIXIN02|98=0|108=30|141=Y|10=194|
8=FIX.4.4|9=84|35=A|34=1|49=FIXIN02|52=20150521-04:01:09.976|56=TEST_CLIENT_44_4|98=0|108=30|141=Y|10=203|
8=FIX.4.4|9=66|35=0|34=2|49=FIXIN02|52=20150521-04:01:40.581|56=TEST_CLIENT_44_4|10=104|
8=FIX.4.4|9=66|35=0|34=2|49=TEST_CLIENT_44_4|52=20150521-04:01:40.544|56=FIXIN02|10=103|
8=FIX.4.4|9=197|35=D|34=3|49=TEST_CLIENT_44_4|52=20150521-04:02:06.286|56=FIXIN02|1=0001210287     |11=1432180927155|15=VND|21=1|22=2|38=13|40=2|44=7900|48=B3D53Y7|54=1|55=KLS|59=0|60=20150521-04:02:06.266|207=VN|10=109|
8=FIX.4.4|9=311|35=8|34=3|49=FIXIN02|52=20150521-04:02:06.320|56=TEST_CLIENT_44_4|1=0001210287     |6=0|11=1432180927155|14=0|17=1432180927155|31=0|32=0|37=None|38=13|39=8|40=2|44=7900|54=1|55=KLS|58=SEC 15 : Unknown account --- Additional Info: Unknown account 0001210287     |59=0|60=20150521-04:02:06.320|103=15|150=8|151=0|10=249|
8=FIX.4.4|9=66|35=0|34=4|49=FIXIN02|52=20150521-04:02:36.581|56=TEST_CLIENT_44_4|10=112|
8=FIX.4.4|9=66|35=0|34=4|49=TEST_CLIENT_44_4|52=20150521-04:02:36.551|56=FIXIN02|10=109|
8=FIX.4.4|9=84|35=A|34=1|49=TEST_CLIENT_44_4|52=20150521-04:19:49.813|56=FIXIN02|98=0|108=30|141=Y|10=206|
8=FIX.4.4|9=84|35=A|34=1|49=FIXIN02|52=20150521-04:19:49.851|56=TEST_CLIENT_44_4|98=0|108=30|141=Y|10=208|
8=FIX.4.4|9=66|35=0|34=2|49=FIXIN02|52=20150521-04:20:20.581|56=TEST_CLIENT_44_4|10=103|
8=FIX.4.4|9=66|35=0|34=2|49=TEST_CLIENT_44_4|52=20150521-04:20:20.544|56=FIXIN02|10=102|
8=FIX.4.4|9=66|35=0|34=3|49=FIXIN02|52=20150521-04:20:50.581|56=TEST_CLIENT_44_4|10=107|
8=FIX.4.4|9=66|35=0|34=3|49=TEST_CLIENT_44_4|52=20150521-04:20:50.546|56=FIXIN02|10=108|
8=FIX.4.4|9=193|35=D|34=4|49=TEST_CLIENT_44_4|52=20150521-04:20:59.666|56=FIXIN02|1=0001210287|11=1432182060299|15=VND|21=1|22=2|38=100|40=2|44=7900|48=B3D53Y7|54=1|55=KLS|59=0|60=20150521-04:20:59.653|207=VN|10=008|
8=FIX.4.4|9=449|35=8|34=4|49=FIXIN02|52=20150521-04:20:59.784|56=TEST_CLIENT_44_4|1=0001210287|6=0|11=1432182060299|14=0|17=052115-FIXIN02-115-0-TEST_CLIENT_44_4-1432182060299|31=0|32=0|37=052115-FIXIN02-115-0-TEST_CLIENT_44_4-1432182060299|38=100|39=8|40=2|44=7900|54=1|55=KLS|58=SEC 0 : Broker Exchange Option --- Additional Info: Price 7900 is lower than floor price 10000 of symbol KLS|59=0|60=20150521-04:20:59.784|103=0|150=8|151=0|336=2|376=0001210287,100,0|10=244|
8=FIX.4.4|9=84|35=A|34=1|49=TEST_CLIENT_44_4|52=20150521-04:22:47.884|56=FIXIN02|98=0|108=30|141=Y|10=206|
8=FIX.4.4|9=84|35=A|34=1|49=FIXIN02|52=20150521-04:22:47.912|56=TEST_CLIENT_44_4|98=0|108=30|141=Y|10=198|
8=FIX.4.4|9=66|35=0|34=2|49=FIXIN02|52=20150521-04:23:18.581|56=TEST_CLIENT_44_4|10=113|
8=FIX.4.4|9=66|35=0|34=2|49=TEST_CLIENT_44_4|52=20150521-04:23:18.568|56=FIXIN02|10=118|
8=FIX.4.4|9=66|35=0|34=3|49=TEST_CLIENT_44_4|52=20150521-04:23:48.844|56=FIXIN02|10=119|
8=FIX.4.4|9=66|35=0|34=3|49=FIXIN02|52=20150521-04:23:48.856|56=TEST_CLIENT_44_4|10=122|
8=FIX.4.4|9=66|35=0|34=4|49=TEST_CLIENT_44_4|52=20150521-04:24:18.854|56=FIXIN02|10=119|
8=FIX.4.4|9=66|35=0|34=4|49=FIXIN02|52=20150521-04:24:18.865|56=TEST_CLIENT_44_4|10=121|
8=FIX.4.4|9=66|35=0|34=5|49=FIXIN02|52=20150521-04:24:49.581|56=TEST_CLIENT_44_4|10=121|
8=FIX.4.4|9=66|35=0|34=5|49=TEST_CLIENT_44_4|52=20150521-04:24:49.570|56=FIXIN02|10=119|
8=FIX.4.4|9=194|35=D|34=6|49=TEST_CLIENT_44_4|52=20150521-04:25:14.963|56=FIXIN02|1=0001210287|11=1432182315818|15=VND|21=1|22=2|38=100|40=2|44=10500|48=B3D53Y7|54=1|55=SAM|59=0|60=20150521-04:25:14.952|207=VN|10=034|
8=FIX.4.4|9=451|35=8|34=6|49=FIXIN02|52=20150521-04:25:14.997|56=TEST_CLIENT_44_4|1=0001210287|6=0|11=1432182315818|14=0|17=052115-FIXIN02-116-0-TEST_CLIENT_44_4-1432182315818|31=0|32=0|37=052115-FIXIN02-116-0-TEST_CLIENT_44_4-1432182315818|38=100|39=8|40=2|44=10500|54=1|55=SAM|58=SEC 0 : Broker Exchange Option --- Additional Info: Price 10500 is lower than floor price 12500 of symbol SAM|59=0|60=20150521-04:25:14.997|103=0|150=8|151=0|336=1|376=0001210287,100,0|10=053|
8=FIX.4.4|9=84|35=A|34=1|49=TEST_CLIENT_44_4|52=20150521-04:31:20.163|56=FIXIN02|98=0|108=30|141=Y|10=187|
8=FIX.4.4|9=84|35=A|34=1|49=FIXIN02|52=20150521-04:31:20.191|56=TEST_CLIENT_44_4|98=0|108=30|141=Y|10=188|
8=FIX.4.4|9=66|35=0|34=2|49=FIXIN02|52=20150521-04:31:50.581|56=TEST_CLIENT_44_4|10=108|
8=FIX.4.4|9=66|35=0|34=2|49=TEST_CLIENT_44_4|52=20150521-04:31:50.574|56=FIXIN02|10=110|
8=FIX.4.4|9=66|35=0|34=3|49=FIXIN02|52=20150521-04:32:20.581|56=TEST_CLIENT_44_4|10=107|
8=FIX.4.4|9=66|35=0|34=3|49=TEST_CLIENT_44_4|52=20150521-04:32:21.137|56=FIXIN02|10=105|
8=FIX.4.4|9=66|35=0|34=4|49=FIXIN02|52=20150521-04:32:50.581|56=TEST_CLIENT_44_4|10=111|
8=FIX.4.4|9=66|35=0|34=4|49=TEST_CLIENT_44_4|52=20150521-04:32:52.110|56=FIXIN02|10=101|
8=FIX.4.4|9=66|35=0|34=5|49=FIXIN02|52=20150521-04:33:20.581|56=TEST_CLIENT_44_4|10=110|
8=FIX.4.4|9=66|35=0|34=5|49=TEST_CLIENT_44_4|52=20150521-04:33:22.132|56=FIXIN02|10=104|
8=FIX.4.4|9=66|35=0|34=6|49=FIXIN02|52=20150521-04:33:50.581|56=TEST_CLIENT_44_4|10=114|
8=FIX.4.4|9=66|35=0|34=6|49=TEST_CLIENT_44_4|52=20150521-04:33:53.108|56=FIXIN02|10=112|
8=FIX.4.4|9=66|35=0|34=7|49=FIXIN02|52=20150521-04:34:20.581|56=TEST_CLIENT_44_4|10=113|
8=FIX.4.4|9=66|35=0|34=7|49=TEST_CLIENT_44_4|52=20150521-04:34:24.106|56=FIXIN02|10=110|
8=FIX.4.4|9=66|35=0|34=8|49=FIXIN02|52=20150521-04:34:50.581|56=TEST_CLIENT_44_4|10=117|
8=FIX.4.4|9=66|35=0|34=8|49=TEST_CLIENT_44_4|52=20150521-04:34:55.105|56=FIXIN02|10=114|
8=FIX.4.4|9=66|35=0|34=9|49=FIXIN02|52=20150521-04:35:20.581|56=TEST_CLIENT_44_4|10=116|
8=FIX.4.4|9=66|35=0|34=9|49=TEST_CLIENT_44_4|52=20150521-04:35:26.103|56=FIXIN02|10=112|
8=FIX.4.4|9=67|35=0|34=10|49=FIXIN02|52=20150521-04:35:50.581|56=TEST_CLIENT_44_4|10=160|
8=FIX.4.4|9=67|35=0|34=10|49=TEST_CLIENT_44_4|52=20150521-04:35:57.102|56=FIXIN02|10=156|
8=FIX.4.4|9=67|35=0|34=11|49=FIXIN02|52=20150521-04:36:20.581|56=TEST_CLIENT_44_4|10=159|
8=FIX.4.4|9=67|35=0|34=11|49=TEST_CLIENT_44_4|52=20150521-04:36:28.101|56=FIXIN02|10=155|
8=FIX.4.4|9=67|35=0|34=12|49=FIXIN02|52=20150521-04:36:50.581|56=TEST_CLIENT_44_4|10=163|
8=FIX.4.4|9=67|35=0|34=12|49=TEST_CLIENT_44_4|52=20150521-04:36:59.100|56=FIXIN02|10=159|
8=FIX.4.4|9=67|35=0|34=13|49=FIXIN02|52=20150521-04:37:20.581|56=TEST_CLIENT_44_4|10=162|
8=FIX.4.4|9=67|35=0|34=13|49=TEST_CLIENT_44_4|52=20150521-04:37:30.098|56=FIXIN02|10=166|
8=FIX.4.4|9=67|35=0|34=14|49=FIXIN02|52=20150521-04:37:50.581|56=TEST_CLIENT_44_4|10=166|
8=FIX.4.4|9=67|35=0|34=14|49=TEST_CLIENT_44_4|52=20150521-04:38:00.119|56=FIXIN02|10=159|
8=FIX.4.4|9=67|35=0|34=15|49=FIXIN02|52=20150521-04:38:20.581|56=TEST_CLIENT_44_4|10=165|
8=FIX.4.4|9=67|35=0|34=15|49=TEST_CLIENT_44_4|52=20150521-04:38:31.096|56=FIXIN02|10=168|
8=FIX.4.4|9=67|35=0|34=16|49=FIXIN02|52=20150521-04:38:51.581|56=TEST_CLIENT_44_4|10=170|
8=FIX.4.4|9=67|35=0|34=16|49=TEST_CLIENT_44_4|52=20150521-04:39:01.123|56=FIXIN02|10=158|
8=FIX.4.4|9=67|35=0|34=17|49=FIXIN02|52=20150521-04:39:21.581|56=TEST_CLIENT_44_4|10=169|
8=FIX.4.4|9=67|35=0|34=17|49=TEST_CLIENT_44_4|52=20150521-04:39:32.095|56=FIXIN02|10=171|
8=FIX.4.4|9=67|35=0|34=18|49=FIXIN02|52=20150521-04:39:51.581|56=TEST_CLIENT_44_4|10=173|
8=FIX.4.4|9=67|35=0|34=18|49=TEST_CLIENT_44_4|52=20150521-04:40:03.094|56=FIXIN02|10=161|
8=FIX.4.4|9=67|35=0|34=19|49=FIXIN02|52=20150521-04:40:21.582|56=TEST_CLIENT_44_4|10=164|
8=FIX.4.4|9=67|35=0|34=19|49=TEST_CLIENT_44_4|52=20150521-04:40:33.119|56=FIXIN02|10=163|
8=FIX.4.4|9=67|35=0|34=20|49=FIXIN02|52=20150521-04:40:52.581|56=TEST_CLIENT_44_4|10=159|
8=FIX.4.4|9=67|35=0|34=20|49=TEST_CLIENT_44_4|52=20150521-04:41:04.092|56=FIXIN02|10=154|
8=FIX.4.4|9=67|35=0|34=21|49=FIXIN02|52=20150521-04:41:22.582|56=TEST_CLIENT_44_4|10=159|
8=FIX.4.4|9=67|35=0|34=21|49=TEST_CLIENT_44_4|52=20150521-04:41:34.109|56=FIXIN02|10=157|
8=FIX.4.4|9=67|35=0|34=22|49=FIXIN02|52=20150521-04:41:53.581|56=TEST_CLIENT_44_4|10=163|
8=FIX.4.4|9=67|35=0|34=22|49=TEST_CLIENT_44_4|52=20150521-04:42:05.090|56=FIXIN02|10=156|
8=FIX.4.4|9=67|35=0|34=23|49=FIXIN02|52=20150521-04:42:23.581|56=TEST_CLIENT_44_4|10=162|
8=FIX.4.4|9=67|35=0|34=23|49=TEST_CLIENT_44_4|52=20150521-04:42:36.089|56=FIXIN02|10=169|
8=FIX.4.4|9=67|35=0|34=24|49=FIXIN02|52=20150521-04:42:53.581|56=TEST_CLIENT_44_4|10=166|
8=FIX.4.4|9=67|35=0|34=24|49=TEST_CLIENT_44_4|52=20150521-04:43:07.112|56=FIXIN02|10=156|
8=FIX.4.4|9=67|35=0|34=25|49=FIXIN02|52=20150521-04:43:23.582|56=TEST_CLIENT_44_4|10=166|
8=FIX.4.4|9=67|35=0|34=25|49=TEST_CLIENT_44_4|52=20150521-04:43:38.107|56=FIXIN02|10=165|
